{
  "contractName": "DeliverableService",
  "abi": [
    {
      "constant": true,
      "inputs": [
        {
          "name": "",
          "type": "uint256"
        }
      ],
      "name": "trashsubmission",
      "outputs": [
        {
          "name": "collector",
          "type": "address"
        },
        {
          "name": "residnet",
          "type": "address"
        },
        {
          "name": "code",
          "type": "uint256"
        },
        {
          "name": "amount",
          "type": "uint256"
        },
        {
          "name": "delivered",
          "type": "bool"
        },
        {
          "name": "paid",
          "type": "bool"
        },
        {
          "name": "time",
          "type": "uint256"
        },
        {
          "name": "location",
          "type": "string"
        }
      ],
      "payable": false,
      "stateMutability": "view",
      "type": "function"
    },
    {
      "constant": true,
      "inputs": [
        {
          "name": "bhash",
          "type": "uint256"
        }
      ],
      "name": "getDeliveredAmount",
      "outputs": [
        {
          "name": "",
          "type": "uint256"
        }
      ],
      "payable": false,
      "stateMutability": "view",
      "type": "function"
    },
    {
      "constant": true,
      "inputs": [
        {
          "name": "bhash",
          "type": "uint256"
        }
      ],
      "name": "getDeliveredCode",
      "outputs": [
        {
          "name": "",
          "type": "uint256"
        }
      ],
      "payable": false,
      "stateMutability": "view",
      "type": "function"
    }
  ],
  "bytecode": "0x608060405234801561001057600080fd5b506103e3806100206000396000f3fe608060405260043610610057576000357c0100000000000000000000000000000000000000000000000000000000900463ffffffff16806325b00e521461005c57806339df6b97146100ab578063a9860cc4146101f0575b600080fd5b34801561006857600080fd5b506100956004803603602081101561007f57600080fd5b810190808035906020019092919050505061023f565b6040518082815260200191505060405180910390f35b3480156100b757600080fd5b506100e4600480360360208110156100ce57600080fd5b810190808035906020019092919050505061025e565b604051808973ffffffffffffffffffffffffffffffffffffffff1673ffffffffffffffffffffffffffffffffffffffff1681526020018873ffffffffffffffffffffffffffffffffffffffff1673ffffffffffffffffffffffffffffffffffffffff168152602001878152602001868152602001851515151581526020018415151515815260200183815260200180602001828103825283818151815260200191508051906020019080838360005b838110156101ae578082015181840152602081019050610193565b50505050905090810190601f1680156101db5780820380516001836020036101000a031916815260200191505b50995050505050505050505060405180910390f35b3480156101fc57600080fd5b506102296004803603602081101561021357600080fd5b8101908080359060200190929190505050610398565b6040518082815260200191505060405180910390f35b6000806000838152602001908152602001600020600201549050919050565b60006020528060005260406000206000915090508060000160009054906101000a900473ffffffffffffffffffffffffffffffffffffffff16908060010160009054906101000a900473ffffffffffffffffffffffffffffffffffffffff16908060020154908060030154908060040160009054906101000a900460ff16908060040160019054906101000a900460ff1690806005015490806006018054600181600116156101000203166002900480601f01602080910402602001604051908101604052809291908181526020018280546001816001161561010002031660029004801561038e5780601f106103635761010080835404028352916020019161038e565b820191906000526020600020905b81548152906001019060200180831161037157829003601f168201915b5050505050905088565b600080600083815260200190815260200160002060030154905091905056fea165627a7a7230582071866df99afefc1fe62e842feb8671c78242c3cb66be9fab14e428a98b74bacd0029",
  "source": "pragma solidity ^0.5.0;\n\n\ncontract DeliverableService  {\n\n    struct SubmissionDetails{\n        address collector;\n        address residnet;\n        uint256 code;\n        uint256 amount;\n        bool delivered;\n        bool paid;\n        uint256 time;\n        string location;\n    }\n    // uint256block hash to SubmissionDetails \n    // block hash might lead to vulnerabilty , so later on we should consider using unique hash for the pacakges for example \n    mapping (uint256=>SubmissionDetails) public trashsubmission;\n\n\nfunction getDeliveredAmount(uint256 bhash) public view returns (uint256 ) {\n   return trashsubmission[bhash].amount;\n}\nfunction getDeliveredCode(uint256 bhash) public view returns (uint256 ) {\n   return trashsubmission[bhash].code;\n}\n\n    function _addDelivery(uint256 mapHash,address collector,address residnet,\n    string memory location,uint256 time,uint256 code,uint256 amount)internal  returns (bool) {\n        trashsubmission [mapHash] = SubmissionDetails (collector,residnet,code,amount,false,false,time,location);\n        return true;\n    }\n    function _validateDeliverables( uint256  mapHash,bool status)internal  returns (bool) {\n        trashsubmission[mapHash].delivered = status;\n        return true;\n    }\n    function _confirmPickup( uint256  mapHash,bool status)internal  returns (bool) {\n        trashsubmission[mapHash].paid = status;\n        return true;\n    }\n \n\n}",
  "sourcePath": "/mnt/6b0867de-74e1-417d-8281-ce67ccf712c6/LocalD/work/yallah-clean/yc-smart-contract/contracts/DeliverableService.sol",
  "compiler": {
    "name": "solc",
    "version": "0.5.0+commit.1d4f565a.Emscripten.clang"
  },
  "schemaVersion": "3.0.23",
  "updatedAt": "2020-03-19T02:57:26.721Z",
  "devdoc": {
    "methods": {}
  },
  "userdoc": {
    "methods": {}
  }
}