{
  "contractName": "OrgRegistry",
  "abi": [
    {
      "constant": true,
      "inputs": [],
      "name": "collectorRate",
      "outputs": [
        {
          "name": "",
          "type": "uint256"
        }
      ],
      "payable": false,
      "stateMutability": "view",
      "type": "function"
    },
    {
      "constant": true,
      "inputs": [
        {
          "name": "bhash",
          "type": "uint256"
        }
      ],
      "name": "getDeliveredCode",
      "outputs": [
        {
          "name": "",
          "type": "uint256"
        }
      ],
      "payable": false,
      "stateMutability": "view",
      "type": "function"
    },
    {
      "constant": true,
      "inputs": [],
      "name": "userFactory",
      "outputs": [
        {
          "name": "",
          "type": "address"
        }
      ],
      "payable": false,
      "stateMutability": "view",
      "type": "function"
    },
    {
      "constant": true,
      "inputs": [],
      "name": "rate",
      "outputs": [
        {
          "name": "",
          "type": "uint256"
        }
      ],
      "payable": false,
      "stateMutability": "view",
      "type": "function"
    },
    {
      "constant": true,
      "inputs": [
        {
          "name": "",
          "type": "uint256"
        }
      ],
      "name": "trashsubmission",
      "outputs": [
        {
          "name": "collector",
          "type": "address"
        },
        {
          "name": "residnet",
          "type": "address"
        },
        {
          "name": "code",
          "type": "uint256"
        },
        {
          "name": "amount",
          "type": "uint256"
        },
        {
          "name": "delivered",
          "type": "bool"
        },
        {
          "name": "paid",
          "type": "bool"
        },
        {
          "name": "time",
          "type": "uint256"
        },
        {
          "name": "location",
          "type": "string"
        }
      ],
      "payable": false,
      "stateMutability": "view",
      "type": "function"
    },
    {
      "constant": true,
      "inputs": [],
      "name": "residentRate",
      "outputs": [
        {
          "name": "",
          "type": "uint256"
        }
      ],
      "payable": false,
      "stateMutability": "view",
      "type": "function"
    },
    {
      "constant": false,
      "inputs": [],
      "name": "renounceOwnership",
      "outputs": [],
      "payable": false,
      "stateMutability": "nonpayable",
      "type": "function"
    },
    {
      "constant": true,
      "inputs": [],
      "name": "pointRaised",
      "outputs": [
        {
          "name": "",
          "type": "uint256"
        }
      ],
      "payable": false,
      "stateMutability": "view",
      "type": "function"
    },
    {
      "constant": true,
      "inputs": [],
      "name": "owner",
      "outputs": [
        {
          "name": "",
          "type": "address"
        }
      ],
      "payable": false,
      "stateMutability": "view",
      "type": "function"
    },
    {
      "constant": true,
      "inputs": [],
      "name": "isOwner",
      "outputs": [
        {
          "name": "",
          "type": "bool"
        }
      ],
      "payable": false,
      "stateMutability": "view",
      "type": "function"
    },
    {
      "constant": true,
      "inputs": [
        {
          "name": "",
          "type": "uint256"
        }
      ],
      "name": "trashList",
      "outputs": [
        {
          "name": "name",
          "type": "string"
        },
        {
          "name": "UnitName",
          "type": "string"
        },
        {
          "name": "unitMaltiplier",
          "type": "uint256"
        },
        {
          "name": "price",
          "type": "uint256"
        }
      ],
      "payable": false,
      "stateMutability": "view",
      "type": "function"
    },
    {
      "constant": true,
      "inputs": [
        {
          "name": "bhash",
          "type": "uint256"
        }
      ],
      "name": "getDeliveredAmount",
      "outputs": [
        {
          "name": "",
          "type": "uint256"
        }
      ],
      "payable": false,
      "stateMutability": "view",
      "type": "function"
    },
    {
      "constant": false,
      "inputs": [
        {
          "name": "newOwner",
          "type": "address"
        }
      ],
      "name": "transferOwnership",
      "outputs": [],
      "payable": false,
      "stateMutability": "nonpayable",
      "type": "function"
    },
    {
      "constant": true,
      "inputs": [],
      "name": "admin",
      "outputs": [
        {
          "name": "",
          "type": "address"
        }
      ],
      "payable": false,
      "stateMutability": "view",
      "type": "function"
    },
    {
      "constant": true,
      "inputs": [],
      "name": "token",
      "outputs": [
        {
          "name": "",
          "type": "address"
        }
      ],
      "payable": false,
      "stateMutability": "view",
      "type": "function"
    },
    {
      "inputs": [
        {
          "name": "_owner",
          "type": "address"
        },
        {
          "name": "_admin",
          "type": "address"
        },
        {
          "name": "token",
          "type": "address"
        },
        {
          "name": "rate",
          "type": "uint256"
        }
      ],
      "payable": false,
      "stateMutability": "nonpayable",
      "type": "constructor"
    },
    {
      "payable": true,
      "stateMutability": "payable",
      "type": "fallback"
    },
    {
      "anonymous": false,
      "inputs": [
        {
          "indexed": true,
          "name": "purchaser",
          "type": "address"
        },
        {
          "indexed": true,
          "name": "beneficiary",
          "type": "address"
        },
        {
          "indexed": false,
          "name": "value",
          "type": "uint256"
        },
        {
          "indexed": false,
          "name": "amount",
          "type": "uint256"
        }
      ],
      "name": "TokensPurchased",
      "type": "event"
    },
    {
      "anonymous": false,
      "inputs": [
        {
          "indexed": true,
          "name": "previousOwner",
          "type": "address"
        },
        {
          "indexed": true,
          "name": "newOwner",
          "type": "address"
        }
      ],
      "name": "OwnershipTransferred",
      "type": "event"
    },
    {
      "constant": true,
      "inputs": [
        {
          "name": "code",
          "type": "uint256"
        },
        {
          "name": "amount",
          "type": "uint256"
        }
      ],
      "name": "calcCollectorPoints",
      "outputs": [
        {
          "name": "",
          "type": "uint256"
        }
      ],
      "payable": false,
      "stateMutability": "view",
      "type": "function"
    },
    {
      "constant": true,
      "inputs": [
        {
          "name": "code",
          "type": "uint256"
        },
        {
          "name": "amount",
          "type": "uint256"
        }
      ],
      "name": "calcResidentPoints",
      "outputs": [
        {
          "name": "",
          "type": "uint256"
        }
      ],
      "payable": false,
      "stateMutability": "view",
      "type": "function"
    },
    {
      "constant": false,
      "inputs": [
        {
          "name": "code",
          "type": "uint256"
        },
        {
          "name": "name",
          "type": "string"
        },
        {
          "name": "UnitName",
          "type": "string"
        },
        {
          "name": "unitMaltiplier",
          "type": "uint256"
        },
        {
          "name": "price",
          "type": "uint256"
        }
      ],
      "name": "manageTrashType",
      "outputs": [
        {
          "name": "",
          "type": "bool"
        }
      ],
      "payable": false,
      "stateMutability": "nonpayable",
      "type": "function"
    },
    {
      "constant": false,
      "inputs": [],
      "name": "approve",
      "outputs": [
        {
          "name": "",
          "type": "bool"
        }
      ],
      "payable": false,
      "stateMutability": "nonpayable",
      "type": "function"
    },
    {
      "constant": false,
      "inputs": [
        {
          "name": "location",
          "type": "string"
        },
        {
          "name": "time",
          "type": "uint256"
        },
        {
          "name": "code",
          "type": "uint256"
        },
        {
          "name": "amount",
          "type": "uint256"
        },
        {
          "name": "residnet",
          "type": "address"
        },
        {
          "name": "mapHash",
          "type": "uint256"
        },
        {
          "name": "account",
          "type": "address"
        }
      ],
      "name": "addDelivery",
      "outputs": [
        {
          "name": "",
          "type": "bool"
        }
      ],
      "payable": false,
      "stateMutability": "nonpayable",
      "type": "function"
    },
    {
      "constant": false,
      "inputs": [
        {
          "name": "mapHash",
          "type": "uint256"
        },
        {
          "name": "points",
          "type": "uint256"
        },
        {
          "name": "account",
          "type": "address"
        }
      ],
      "name": "validateDeliverables",
      "outputs": [
        {
          "name": "",
          "type": "bool"
        }
      ],
      "payable": false,
      "stateMutability": "nonpayable",
      "type": "function"
    },
    {
      "constant": false,
      "inputs": [
        {
          "name": "mapHash",
          "type": "uint256"
        },
        {
          "name": "points",
          "type": "uint256"
        },
        {
          "name": "account",
          "type": "address"
        }
      ],
      "name": "confirmPickup",
      "outputs": [
        {
          "name": "",
          "type": "bool"
        }
      ],
      "payable": false,
      "stateMutability": "nonpayable",
      "type": "function"
    }
  ],
  "bytecode": "0x60806040526002600755600880553480156200001a57600080fd5b5060405160808062007374833981018060405260808110156200003c57600080fd5b81019080805190602001909291908051906020019092919080519060200190929190805190602001909291905050508181600062000088620002f7640100000000026401000000009004565b9050806000806101000a81548173ffffffffffffffffffffffffffffffffffffffff021916908373ffffffffffffffffffffffffffffffffffffffff1602179055508073ffffffffffffffffffffffffffffffffffffffff16600073ffffffffffffffffffffffffffffffffffffffff167f8be0079c531659141344cd1fd0a4f28419497f9722a3daafe3b4186f6b6457e060405160405180910390a3506001600060146101000a81548160ff0219169083151502179055508060028190555081600160006101000a81548173ffffffffffffffffffffffffffffffffffffffff021916908373ffffffffffffffffffffffffffffffffffffffff1602179055505050620001a584620002ff640100000000026401000000009004565b82600560006101000a81548173ffffffffffffffffffffffffffffffffffffffff021916908373ffffffffffffffffffffffffffffffffffffffff160217905550838330620001f362000489565b808473ffffffffffffffffffffffffffffffffffffffff1673ffffffffffffffffffffffffffffffffffffffff1681526020018373ffffffffffffffffffffffffffffffffffffffff1673ffffffffffffffffffffffffffffffffffffffff1681526020018273ffffffffffffffffffffffffffffffffffffffff1673ffffffffffffffffffffffffffffffffffffffff1681526020019350505050604051809103906000f080158015620002ac573d6000803e3d6000fd5b50600660006101000a81548173ffffffffffffffffffffffffffffffffffffffff021916908373ffffffffffffffffffffffffffffffffffffffff160217905550505050506200049a565b600033905090565b600073ffffffffffffffffffffffffffffffffffffffff168173ffffffffffffffffffffffffffffffffffffffff1614151515620003cb576040517f08c379a00000000000000000000000000000000000000000000000000000000081526004018080602001828103825260268152602001807f4f776e61626c653a206e6577206f776e657220697320746865207a65726f206181526020017f646472657373000000000000000000000000000000000000000000000000000081525060400191505060405180910390fd5b8073ffffffffffffffffffffffffffffffffffffffff166000809054906101000a900473ffffffffffffffffffffffffffffffffffffffff1673ffffffffffffffffffffffffffffffffffffffff167f8be0079c531659141344cd1fd0a4f28419497f9722a3daafe3b4186f6b6457e060405160405180910390a3806000806101000a81548173ffffffffffffffffffffffffffffffffffffffff021916908373ffffffffffffffffffffffffffffffffffffffff16021790555050565b6040516145d48062002da083390190565b6128f680620004aa6000396000f3fe608060405260043610610128576000357c0100000000000000000000000000000000000000000000000000000000900463ffffffff16806312424e3f14610196578063164a7d87146101c55780631858b2a4146101f057806325b00e5214610249578063283097ab146102985780632c4e722e146102ef57806339df6b971461031a578063462c4cd01461045f578063518f6bec1461048a578063715018a61461050757806381e78b501461051e5780638da5cb5b146105495780638f32d59b146105a057806397e93d92146105cf5780639d47d23f1461064c578063a6b1a2eb1461077a578063a9860cc414610880578063bc44223e146108cf578063eaf4bf3a14610a64578063f2fde38b14610abd578063f851a44014610b0e578063fc0c546a14610b65575b6040517f08c379a00000000000000000000000000000000000000000000000000000000081526004018080602001828103825260138152602001807f457468206973206e6f742061636365707465640000000000000000000000000081525060200191505060405180910390fd5b3480156101a257600080fd5b506101ab610bbc565b604051808215151515815260200191505060405180910390f35b3480156101d157600080fd5b506101da610d77565b6040518082815260200191505060405180910390f35b3480156101fc57600080fd5b506102336004803603604081101561021357600080fd5b810190808035906020019092919080359060200190929190505050610d7d565b6040518082815260200191505060405180910390f35b34801561025557600080fd5b506102826004803603602081101561026c57600080fd5b8101908080359060200190929190505050610dff565b6040518082815260200191505060405180910390f35b3480156102a457600080fd5b506102ad610e1f565b604051808273ffffffffffffffffffffffffffffffffffffffff1673ffffffffffffffffffffffffffffffffffffffff16815260200191505060405180910390f35b3480156102fb57600080fd5b50610304610e45565b6040518082815260200191505060405180910390f35b34801561032657600080fd5b506103536004803603602081101561033d57600080fd5b8101908080359060200190929190505050610e4f565b604051808973ffffffffffffffffffffffffffffffffffffffff1673ffffffffffffffffffffffffffffffffffffffff1681526020018873ffffffffffffffffffffffffffffffffffffffff1673ffffffffffffffffffffffffffffffffffffffff168152602001878152602001868152602001851515151581526020018415151515815260200183815260200180602001828103825283818151815260200191508051906020019080838360005b8381101561041d578082015181840152602081019050610402565b50505050905090810190601f16801561044a5780820380516001836020036101000a031916815260200191505b50995050505050505050505060405180910390f35b34801561046b57600080fd5b50610474610f89565b6040518082815260200191505060405180910390f35b34801561049657600080fd5b506104ed600480360360608110156104ad57600080fd5b810190808035906020019092919080359060200190929190803573ffffffffffffffffffffffffffffffffffffffff169060200190929190505050610f8f565b604051808215151515815260200191505060405180910390f35b34801561051357600080fd5b5061051c611212565b005b34801561052a57600080fd5b5061053361134d565b6040518082815260200191505060405180910390f35b34801561055557600080fd5b5061055e611357565b604051808273ffffffffffffffffffffffffffffffffffffffff1673ffffffffffffffffffffffffffffffffffffffff16815260200191505060405180910390f35b3480156105ac57600080fd5b506105b5611380565b604051808215151515815260200191505060405180910390f35b3480156105db57600080fd5b50610632600480360360608110156105f257600080fd5b810190808035906020019092919080359060200190929190803573ffffffffffffffffffffffffffffffffffffffff1690602001909291905050506113de565b604051808215151515815260200191505060405180910390f35b34801561065857600080fd5b506106856004803603602081101561066f57600080fd5b8101908080359060200190929190505050611661565b604051808060200180602001858152602001848152602001838103835287818151815260200191508051906020019080838360005b838110156106d55780820151818401526020810190506106ba565b50505050905090810190601f1680156107025780820380516001836020036101000a031916815260200191505b50838103825286818151815260200191508051906020019080838360005b8381101561073b578082015181840152602081019050610720565b50505050905090810190601f1680156107685780820380516001836020036101000a031916815260200191505b50965050505050505060405180910390f35b34801561078657600080fd5b50610866600480360360e081101561079d57600080fd5b81019080803590602001906401000000008111156107ba57600080fd5b8201836020820111156107cc57600080fd5b803590602001918460018302840111640100000000831117156107ee57600080fd5b9091929391929390803590602001909291908035906020019092919080359060200190929190803573ffffffffffffffffffffffffffffffffffffffff16906020019092919080359060200190929190803573ffffffffffffffffffffffffffffffffffffffff1690602001909291905050506117c1565b604051808215151515815260200191505060405180910390f35b34801561088c57600080fd5b506108b9600480360360208110156108a357600080fd5b8101908080359060200190929190505050611a8e565b6040518082815260200191505060405180910390f35b3480156108db57600080fd5b50610a4a600480360360a08110156108f257600080fd5b81019080803590602001909291908035906020019064010000000081111561091957600080fd5b82018360208201111561092b57600080fd5b8035906020019184600183028401116401000000008311171561094d57600080fd5b91908080601f016020809104026020016040519081016040528093929190818152602001838380828437600081840152601f19601f820116905080830192505050505050509192919290803590602001906401000000008111156109b057600080fd5b8201836020820111156109c257600080fd5b803590602001918460018302840111640100000000831117156109e457600080fd5b91908080601f016020809104026020016040519081016040528093929190818152602001838380828437600081840152601f19601f8201169050808301925050505050505091929192908035906020019092919080359060200190929190505050611aae565b604051808215151515815260200191505060405180910390f35b348015610a7057600080fd5b50610aa760048036036040811015610a8757600080fd5b810190808035906020019092919080359060200190929190505050611b43565b6040518082815260200191505060405180910390f35b348015610ac957600080fd5b50610b0c60048036036020811015610ae057600080fd5b81019080803573ffffffffffffffffffffffffffffffffffffffff169060200190929190505050611bc5565b005b348015610b1a57600080fd5b50610b23611c4d565b604051808273ffffffffffffffffffffffffffffffffffffffff1673ffffffffffffffffffffffffffffffffffffffff16815260200191505060405180910390f35b348015610b7157600080fd5b50610b7a611c73565b604051808273ffffffffffffffffffffffffffffffffffffffff1673ffffffffffffffffffffffffffffffffffffffff16815260200191505060405180910390f35b6000600560009054906101000a900473ffffffffffffffffffffffffffffffffffffffff1673ffffffffffffffffffffffffffffffffffffffff1663bd7cdaa1610c04611c9d565b6040518263ffffffff167c0100000000000000000000000000000000000000000000000000000000028152600401808273ffffffffffffffffffffffffffffffffffffffff1673ffffffffffffffffffffffffffffffffffffffff16815260200191505060206040518083038186803b158015610c8057600080fd5b505afa158015610c94573d6000803e3d6000fd5b505050506040513d6020811015610caa57600080fd5b81019080805190602001909291905050501515610d55576040517f08c379a00000000000000000000000000000000000000000000000000000000081526004018080602001828103825260308152602001807f6f6e6c7941646d696e3a2063616c6c657220646f6573206e6f7420686176652081526020017f74686520594341646d696e20726f6c650000000000000000000000000000000081525060400191505060405180910390fd5b6001600960006101000a81548160ff0219169083151502179055506001905090565b60085481565b6000610df7600a610de9600754610ddb610db6600a60008a81526020019081526020016000206002015488611ca590919063ffffffff16565b600a60008a815260200190815260200160002060030154611cef90919063ffffffff16565b611cef90919063ffffffff16565b611ca590919063ffffffff16565b905092915050565b600060046000838152602001908152602001600020600201549050919050565b600660009054906101000a900473ffffffffffffffffffffffffffffffffffffffff1681565b6000600254905090565b60046020528060005260406000206000915090508060000160009054906101000a900473ffffffffffffffffffffffffffffffffffffffff16908060010160009054906101000a900473ffffffffffffffffffffffffffffffffffffffff16908060020154908060030154908060040160009054906101000a900460ff16908060040160019054906101000a900460ff1690806005015490806006018054600181600116156101000203166002900480601f016020809104026020016040519081016040528092919081815260200182805460018160011615610100020316600290048015610f7f5780601f10610f5457610100808354040283529160200191610f7f565b820191906000526020600020905b815481529060010190602001808311610f6257829003601f168201915b5050505050905088565b60075481565b600081610f9a611c9d565b73ffffffffffffffffffffffffffffffffffffffff16600660009054906101000a900473ffffffffffffffffffffffffffffffffffffffff1673ffffffffffffffffffffffffffffffffffffffff16639e057252836040518263ffffffff167c0100000000000000000000000000000000000000000000000000000000028152600401808273ffffffffffffffffffffffffffffffffffffffff1673ffffffffffffffffffffffffffffffffffffffff16815260200191505060206040518083038186803b15801561106b57600080fd5b505afa15801561107f573d6000803e3d6000fd5b505050506040513d602081101561109557600080fd5b810190808051906020019092919050505073ffffffffffffffffffffffffffffffffffffffff16141515611157576040517f08c379a00000000000000000000000000000000000000000000000000000000081526004018080602001828103825260368152602001807f6f6e6c79436f6c6c6563746f723a2063616c6c657220646f6573206e6f74206881526020017f6176652074686520436f6c6c6563746f7220726f6c650000000000000000000081525060400191505060405180910390fd5b611162856001611dbc565b15156111fc576040517f08c379a00000000000000000000000000000000000000000000000000000000081526004018080602001828103825260338152602001807f2063616c6c696e67205f76616c696461746544656c6976657261626c6573206681526020017f756e6374696f6e2068617320697373756573200000000000000000000000000081525060400191505060405180910390fd5b61120584611df6565b5060019150509392505050565b61121a611380565b151561128e576040517f08c379a00000000000000000000000000000000000000000000000000000000081526004018080602001828103825260208152602001807f4f776e61626c653a2063616c6c6572206973206e6f7420746865206f776e657281525060200191505060405180910390fd5b600073ffffffffffffffffffffffffffffffffffffffff166000809054906101000a900473ffffffffffffffffffffffffffffffffffffffff1673ffffffffffffffffffffffffffffffffffffffff167f8be0079c531659141344cd1fd0a4f28419497f9722a3daafe3b4186f6b6457e060405160405180910390a360008060006101000a81548173ffffffffffffffffffffffffffffffffffffffff021916908373ffffffffffffffffffffffffffffffffffffffff160217905550565b6000600354905090565b60008060009054906101000a900473ffffffffffffffffffffffffffffffffffffffff16905090565b60008060009054906101000a900473ffffffffffffffffffffffffffffffffffffffff1673ffffffffffffffffffffffffffffffffffffffff166113c2611c9d565b73ffffffffffffffffffffffffffffffffffffffff1614905090565b6000816113e9611c9d565b73ffffffffffffffffffffffffffffffffffffffff16600660009054906101000a900473ffffffffffffffffffffffffffffffffffffffff1673ffffffffffffffffffffffffffffffffffffffff1663a7107f02836040518263ffffffff167c0100000000000000000000000000000000000000000000000000000000028152600401808273ffffffffffffffffffffffffffffffffffffffff1673ffffffffffffffffffffffffffffffffffffffff16815260200191505060206040518083038186803b1580156114ba57600080fd5b505afa1580156114ce573d6000803e3d6000fd5b505050506040513d60208110156114e457600080fd5b810190808051906020019092919050505073ffffffffffffffffffffffffffffffffffffffff161415156115a6576040517f08c379a00000000000000000000000000000000000000000000000000000000081526004018080602001828103825260348152602001807f6f6e6c795265736964656e743a2063616c6c657220646f6573206e6f7420686181526020017f766520746865205265736964656e7420726f6c6500000000000000000000000081525060400191505060405180910390fd5b6115b1856001611e12565b151561164b576040517f08c379a00000000000000000000000000000000000000000000000000000000081526004018080602001828103825260328152602001807f63616c6c696e67205f76616c696461746544656c6976657261626c657320667581526020017f6e6374696f6e206861732069737375657320000000000000000000000000000081525060400191505060405180910390fd5b61165484611df6565b5060019150509392505050565b600a602052806000526040600020600091509050806000018054600181600116156101000203166002900480601f01602080910402602001604051908101604052809291908181526020018280546001816001161561010002031660029004801561170d5780601f106116e25761010080835404028352916020019161170d565b820191906000526020600020905b8154815290600101906020018083116116f057829003601f168201915b505050505090806001018054600181600116156101000203166002900480601f0160208091040260200160405190810160405280929190818152602001828054600181600116156101000203166002900480156117ab5780601f10611780576101008083540402835291602001916117ab565b820191906000526020600020905b81548152906001019060200180831161178e57829003601f168201915b5050505050908060020154908060030154905084565b6000816117cc611c9d565b73ffffffffffffffffffffffffffffffffffffffff16600660009054906101000a900473ffffffffffffffffffffffffffffffffffffffff1673ffffffffffffffffffffffffffffffffffffffff16639e057252836040518263ffffffff167c0100000000000000000000000000000000000000000000000000000000028152600401808273ffffffffffffffffffffffffffffffffffffffff1673ffffffffffffffffffffffffffffffffffffffff16815260200191505060206040518083038186803b15801561189d57600080fd5b505afa1580156118b1573d6000803e3d6000fd5b505050506040513d60208110156118c757600080fd5b810190808051906020019092919050505073ffffffffffffffffffffffffffffffffffffffff16141515611989576040517f08c379a00000000000000000000000000000000000000000000000000000000081526004018080602001828103825260368152602001807f6f6e6c79436f6c6c6563746f723a2063616c6c657220646f6573206e6f74206881526020017f6176652074686520436f6c6c6563746f7220726f6c650000000000000000000081525060400191505060405180910390fd5b6119e384611995611c9d565b878d8d8080601f016020809104026020016040519081016040528093929190818152602001838380828437600081840152601f19601f820116905080830192505050505050508c8c8c611e4c565b1515611a7d576040517f08c379a000000000000000000000000000000000000000000000000000000000815260040180806020018281038252602e8152602001807f2063616c6c696e67205f61646444656c6976657261626c65732066756e63746981526020017f6f6e20686173206973737565732000000000000000000000000000000000000081525060400191505060405180910390fd5b600191505098975050505050505050565b600060046000838152602001908152602001600020600301549050919050565b600060806040519081016040528086815260200185815260200184815260200183815250600a60008881526020019081526020016000206000820151816000019080519060200190611b01929190612825565b506020820151816001019080519060200190611b1e929190612825565b5060408201518160020155606082015181600301559050506001905095945050505050565b6000611bbd600a611baf600854611ba1611b7c600a60008a81526020019081526020016000206002015488611ca590919063ffffffff16565b600a60008a815260200190815260200160002060030154611cef90919063ffffffff16565b611cef90919063ffffffff16565b611ca590919063ffffffff16565b905092915050565b611bcd611380565b1515611c41576040517f08c379a00000000000000000000000000000000000000000000000000000000081526004018080602001828103825260208152602001807f4f776e61626c653a2063616c6c6572206973206e6f7420746865206f776e657281525060200191505060405180910390fd5b611c4a81611fe9565b50565b600560009054906101000a900473ffffffffffffffffffffffffffffffffffffffff1681565b6000600160009054906101000a900473ffffffffffffffffffffffffffffffffffffffff16905090565b600033905090565b6000611ce783836040805190810160405280601a81526020017f536166654d6174683a206469766973696f6e206279207a65726f000000000000815250612172565b905092915050565b600080831415611d025760009050611db6565b60008284029050828482811515611d1557fe5b04141515611db1576040517f08c379a00000000000000000000000000000000000000000000000000000000081526004018080602001828103825260218152602001807f536166654d6174683a206d756c7469706c69636174696f6e206f766572666c6f81526020017f770000000000000000000000000000000000000000000000000000000000000081525060400191505060405180910390fd5b809150505b92915050565b6000816004600085815260200190815260200160002060040160006101000a81548160ff0219169083151502179055506001905092915050565b6000611e09611e03611c9d565b8361223c565b60019050919050565b6000816004600085815260200190815260200160002060040160016101000a81548160ff0219169083151502179055506001905092915050565b6000610100604051908101604052808873ffffffffffffffffffffffffffffffffffffffff1681526020018773ffffffffffffffffffffffffffffffffffffffff16815260200184815260200183815260200160001515815260200160001515815260200185815260200186815250600460008a815260200190815260200160002060008201518160000160006101000a81548173ffffffffffffffffffffffffffffffffffffffff021916908373ffffffffffffffffffffffffffffffffffffffff16021790555060208201518160010160006101000a81548173ffffffffffffffffffffffffffffffffffffffff021916908373ffffffffffffffffffffffffffffffffffffffff160217905550604082015181600201556060820151816003015560808201518160040160006101000a81548160ff02191690831515021790555060a08201518160040160016101000a81548160ff02191690831515021790555060c0820151816005015560e0820151816006019080519060200190611fd6929190612825565b5090505060019050979650505050505050565b600073ffffffffffffffffffffffffffffffffffffffff168173ffffffffffffffffffffffffffffffffffffffff16141515156120b4576040517f08c379a00000000000000000000000000000000000000000000000000000000081526004018080602001828103825260268152602001807f4f776e61626c653a206e6577206f776e657220697320746865207a65726f206181526020017f646472657373000000000000000000000000000000000000000000000000000081525060400191505060405180910390fd5b8073ffffffffffffffffffffffffffffffffffffffff166000809054906101000a900473ffffffffffffffffffffffffffffffffffffffff1673ffffffffffffffffffffffffffffffffffffffff167f8be0079c531659141344cd1fd0a4f28419497f9722a3daafe3b4186f6b6457e060405160405180910390a3806000806101000a81548173ffffffffffffffffffffffffffffffffffffffff021916908373ffffffffffffffffffffffffffffffffffffffff16021790555050565b600080831182901515612220576040517f08c379a00000000000000000000000000000000000000000000000000000000081526004018080602001828103825283818151815260200191508051906020019080838360005b838110156121e55780820151818401526020810190506121ca565b50505050905090810190601f1680156122125780820380516001836020036101000a031916815260200191505b509250505060405180910390fd5b506000838581151561222e57fe5b049050809150509392505050565b600060149054906101000a900460ff1615156122c0576040517f08c379a000000000000000000000000000000000000000000000000000000000815260040180806020018281038252601f8152602001807f5265656e7472616e637947756172643a207265656e7472616e742063616c6c0081525060200191505060405180910390fd5b60008060146101000a81548160ff0219169083151502179055506122e482826123b3565b60006122ef826124fb565b90506122fa82612519565b61230f8260035461268890919063ffffffff16565b60038190555061231f8382612712565b8273ffffffffffffffffffffffffffffffffffffffff1661233e611c9d565b73ffffffffffffffffffffffffffffffffffffffff167f6faf93231a456e552dbc9961f58d9713ee4f2e69d15f1975b050ef0911053a7b8484604051808381526020018281526020019250505060405180910390a3506001600060146101000a81548160ff0219169083151502179055505050565b600073ffffffffffffffffffffffffffffffffffffffff168273ffffffffffffffffffffffffffffffffffffffff161415151561247e576040517f08c379a000000000000000000000000000000000000000000000000000000000815260040180806020018281038252602a8152602001807f43726f776473616c653a2062656e656669636961727920697320746865207a6581526020017f726f20616464726573730000000000000000000000000000000000000000000081525060400191505060405180910390fd5b600081141515156124f7576040517f08c379a000000000000000000000000000000000000000000000000000000000815260040180806020018281038252601b8152602001807f43726f776473616c653a20706f696e74416d6f756e742069732030000000000081525060200191505060405180910390fd5b5050565b600061251260025483611ca590919063ffffffff16565b9050919050565b80600160009054906101000a900473ffffffffffffffffffffffffffffffffffffffff1673ffffffffffffffffffffffffffffffffffffffff166370a08231306040518263ffffffff167c0100000000000000000000000000000000000000000000000000000000028152600401808273ffffffffffffffffffffffffffffffffffffffff1673ffffffffffffffffffffffffffffffffffffffff16815260200191505060206040518083038186803b1580156125d557600080fd5b505afa1580156125e9573d6000803e3d6000fd5b505050506040513d60208110156125ff57600080fd5b8101908080519060200190929190505050111515612685576040517f08c379a00000000000000000000000000000000000000000000000000000000081526004018080602001828103825260128152602001807f696e73756666696369656e742066756e6473000000000000000000000000000081525060200191505060405180910390fd5b50565b6000808284019050838110151515612708576040517f08c379a000000000000000000000000000000000000000000000000000000000815260040180806020018281038252601b8152602001807f536166654d6174683a206164646974696f6e206f766572666c6f77000000000081525060200191505060405180910390fd5b8091505092915050565b61271c8282612720565b5050565b600160009054906101000a900473ffffffffffffffffffffffffffffffffffffffff1673ffffffffffffffffffffffffffffffffffffffff1663a9059cbb83836040518363ffffffff167c0100000000000000000000000000000000000000000000000000000000028152600401808373ffffffffffffffffffffffffffffffffffffffff1673ffffffffffffffffffffffffffffffffffffffff16815260200182815260200192505050602060405180830381600087803b1580156127e557600080fd5b505af11580156127f9573d6000803e3d6000fd5b505050506040513d602081101561280f57600080fd5b8101908080519060200190929190505050505050565b828054600181600116156101000203166002900490600052602060002090601f016020900481019282601f1061286657805160ff1916838001178555612894565b82800160010185558215612894579182015b82811115612893578251825591602001919060010190612878565b5b5090506128a191906128a5565b5090565b6128c791905b808211156128c35760008160009055506001016128ab565b5090565b9056fea165627a7a723058205c1e92a1bc2272c16a5274cf205e6877793e8c8b3d0982b620e77d242bc360e20029608060405234801561001057600080fd5b50604051606080620045d48339810180604052606081101561003157600080fd5b81019080805190602001909291908051906020019092919080519060200190929190505050600061006f6101af640100000000026401000000009004565b9050806000806101000a81548173ffffffffffffffffffffffffffffffffffffffff021916908373ffffffffffffffffffffffffffffffffffffffff1602179055508073ffffffffffffffffffffffffffffffffffffffff16600073ffffffffffffffffffffffffffffffffffffffff167f8be0079c531659141344cd1fd0a4f28419497f9722a3daafe3b4186f6b6457e060405160405180910390a350610125836101b7640100000000026401000000009004565b81600160006101000a81548173ffffffffffffffffffffffffffffffffffffffff021916908373ffffffffffffffffffffffffffffffffffffffff16021790555080600260006101000a81548173ffffffffffffffffffffffffffffffffffffffff021916908373ffffffffffffffffffffffffffffffffffffffff160217905550505050610340565b600033905090565b600073ffffffffffffffffffffffffffffffffffffffff168173ffffffffffffffffffffffffffffffffffffffff1614151515610282576040517f08c379a00000000000000000000000000000000000000000000000000000000081526004018080602001828103825260268152602001807f4f776e61626c653a206e6577206f776e657220697320746865207a65726f206181526020017f646472657373000000000000000000000000000000000000000000000000000081525060400191505060405180910390fd5b8073ffffffffffffffffffffffffffffffffffffffff166000809054906101000a900473ffffffffffffffffffffffffffffffffffffffff1673ffffffffffffffffffffffffffffffffffffffff167f8be0079c531659141344cd1fd0a4f28419497f9722a3daafe3b4186f6b6457e060405160405180910390a3806000806101000a81548173ffffffffffffffffffffffffffffffffffffffff021916908373ffffffffffffffffffffffffffffffffffffffff16021790555050565b61428480620003506000396000f3fe608060405260043610620000f7576000357c0100000000000000000000000000000000000000000000000000000000900463ffffffff1680632c69077a14620000fc578063369dee4214620001915780634b37124c1462000226578063550c75a314620002bb578063715018a614620003285780638da5cb5b14620003425780638f32d59b146200039c5780639593b52314620003ce5780639e0572521462000463578063a7107f0214620004f8578063c0b3f2a4146200058d578063cf7ddbd814620005fa578063d344ed93146200068f578063e4d65d5414620006fc578063e746ee911462000791578063f2fde38b1462000826575b600080fd5b3480156200010957600080fd5b506200014f600480360360208110156200012257600080fd5b81019080803573ffffffffffffffffffffffffffffffffffffffff1690602001909291905050506200087b565b604051808273ffffffffffffffffffffffffffffffffffffffff1673ffffffffffffffffffffffffffffffffffffffff16815260200191505060405180910390f35b3480156200019e57600080fd5b50620001e460048036036020811015620001b757600080fd5b81019080803573ffffffffffffffffffffffffffffffffffffffff16906020019092919050505062000a68565b604051808273ffffffffffffffffffffffffffffffffffffffff1673ffffffffffffffffffffffffffffffffffffffff16815260200191505060405180910390f35b3480156200023357600080fd5b5062000279600480360360208110156200024c57600080fd5b81019080803573ffffffffffffffffffffffffffffffffffffffff16906020019092919050505062000cab565b604051808273ffffffffffffffffffffffffffffffffffffffff1673ffffffffffffffffffffffffffffffffffffffff16815260200191505060405180910390f35b348015620002c857600080fd5b506200030e60048036036020811015620002e157600080fd5b81019080803573ffffffffffffffffffffffffffffffffffffffff16906020019092919050505062000cde565b604051808215151515815260200191505060405180910390f35b3480156200033557600080fd5b506200034062000d75565b005b3480156200034f57600080fd5b506200035a62000eb3565b604051808273ffffffffffffffffffffffffffffffffffffffff1673ffffffffffffffffffffffffffffffffffffffff16815260200191505060405180910390f35b348015620003a957600080fd5b50620003b462000edc565b604051808215151515815260200191505060405180910390f35b348015620003db57600080fd5b506200042160048036036020811015620003f457600080fd5b81019080803573ffffffffffffffffffffffffffffffffffffffff16906020019092919050505062000f3c565b604051808273ffffffffffffffffffffffffffffffffffffffff1673ffffffffffffffffffffffffffffffffffffffff16815260200191505060405180910390f35b3480156200047057600080fd5b50620004b6600480360360208110156200048957600080fd5b81019080803573ffffffffffffffffffffffffffffffffffffffff16906020019092919050505062000f6f565b604051808273ffffffffffffffffffffffffffffffffffffffff1673ffffffffffffffffffffffffffffffffffffffff16815260200191505060405180910390f35b3480156200050557600080fd5b506200054b600480360360208110156200051e57600080fd5b81019080803573ffffffffffffffffffffffffffffffffffffffff16906020019092919050505062000fd8565b604051808273ffffffffffffffffffffffffffffffffffffffff1673ffffffffffffffffffffffffffffffffffffffff16815260200191505060405180910390f35b3480156200059a57600080fd5b50620005e060048036036020811015620005b357600080fd5b81019080803573ffffffffffffffffffffffffffffffffffffffff16906020019092919050505062001041565b604051808215151515815260200191505060405180910390f35b3480156200060757600080fd5b506200064d600480360360208110156200062057600080fd5b81019080803573ffffffffffffffffffffffffffffffffffffffff169060200190929190505050620010d8565b604051808273ffffffffffffffffffffffffffffffffffffffff1673ffffffffffffffffffffffffffffffffffffffff16815260200191505060405180910390f35b3480156200069c57600080fd5b50620006e260048036036020811015620006b557600080fd5b81019080803573ffffffffffffffffffffffffffffffffffffffff1690602001909291905050506200131b565b604051808215151515815260200191505060405180910390f35b3480156200070957600080fd5b506200074f600480360360208110156200072257600080fd5b81019080803573ffffffffffffffffffffffffffffffffffffffff169060200190929190505050620013b2565b604051808273ffffffffffffffffffffffffffffffffffffffff1673ffffffffffffffffffffffffffffffffffffffff16815260200191505060405180910390f35b3480156200079e57600080fd5b50620007e460048036036020811015620007b757600080fd5b81019080803573ffffffffffffffffffffffffffffffffffffffff169060200190929190505050620013e5565b604051808273ffffffffffffffffffffffffffffffffffffffff1673ffffffffffffffffffffffffffffffffffffffff16815260200191505060405180910390f35b3480156200083357600080fd5b5062000879600480360360208110156200084c57600080fd5b81019080803573ffffffffffffffffffffffffffffffffffffffff1690602001909291905050506200144e565b005b600081620008898162001041565b151562000924576040517f08c379a00000000000000000000000000000000000000000000000000000000081526004018080602001828103825260378152602001807f4f6e6c79427573696e657373506172746e65723a20427573696e65737320506181526020017f72746e657220697320616c72656164792065786973742000000000000000000081525060400191505060405180910390fd5b826200092f6200166d565b808273ffffffffffffffffffffffffffffffffffffffff1673ffffffffffffffffffffffffffffffffffffffff168152602001915050604051809103906000f08015801562000982573d6000803e3d6000fd5b50600560008573ffffffffffffffffffffffffffffffffffffffff1673ffffffffffffffffffffffffffffffffffffffff16815260200190815260200160002060006101000a81548173ffffffffffffffffffffffffffffffffffffffff021916908373ffffffffffffffffffffffffffffffffffffffff160217905550600560008473ffffffffffffffffffffffffffffffffffffffff1673ffffffffffffffffffffffffffffffffffffffff16815260200190815260200160002060009054906101000a900473ffffffffffffffffffffffffffffffffffffffff16915050919050565b60008162000a76816200131b565b151562000b11576040517f08c379a000000000000000000000000000000000000000000000000000000000815260040180806020018281038252602d8152602001807f4f6e6c794e6577436f6c6c6563746f723a20636f6c6c6563746f72206973206181526020017f6c7265616479206578697374200000000000000000000000000000000000000081525060400191505060405180910390fd5b82600260009054906101000a900473ffffffffffffffffffffffffffffffffffffffff1662000b3f6200167e565b808373ffffffffffffffffffffffffffffffffffffffff1673ffffffffffffffffffffffffffffffffffffffff1681526020018273ffffffffffffffffffffffffffffffffffffffff1673ffffffffffffffffffffffffffffffffffffffff16815260200192505050604051809103906000f08015801562000bc5573d6000803e3d6000fd5b50600460008573ffffffffffffffffffffffffffffffffffffffff1673ffffffffffffffffffffffffffffffffffffffff16815260200190815260200160002060006101000a81548173ffffffffffffffffffffffffffffffffffffffff021916908373ffffffffffffffffffffffffffffffffffffffff160217905550600460008473ffffffffffffffffffffffffffffffffffffffff1673ffffffffffffffffffffffffffffffffffffffff16815260200190815260200160002060009054906101000a900473ffffffffffffffffffffffffffffffffffffffff16915050919050565b60056020528060005260406000206000915054906101000a900473ffffffffffffffffffffffffffffffffffffffff1681565b60008073ffffffffffffffffffffffffffffffffffffffff16600360008473ffffffffffffffffffffffffffffffffffffffff1673ffffffffffffffffffffffffffffffffffffffff16815260200190815260200160002060009054906101000a900473ffffffffffffffffffffffffffffffffffffffff1673ffffffffffffffffffffffffffffffffffffffff16149050919050565b62000d7f62000edc565b151562000df4576040517f08c379a00000000000000000000000000000000000000000000000000000000081526004018080602001828103825260208152602001807f4f776e61626c653a2063616c6c6572206973206e6f7420746865206f776e657281525060200191505060405180910390fd5b600073ffffffffffffffffffffffffffffffffffffffff166000809054906101000a900473ffffffffffffffffffffffffffffffffffffffff1673ffffffffffffffffffffffffffffffffffffffff167f8be0079c531659141344cd1fd0a4f28419497f9722a3daafe3b4186f6b6457e060405160405180910390a360008060006101000a81548173ffffffffffffffffffffffffffffffffffffffff021916908373ffffffffffffffffffffffffffffffffffffffff160217905550565b60008060009054906101000a900473ffffffffffffffffffffffffffffffffffffffff16905090565b60008060009054906101000a900473ffffffffffffffffffffffffffffffffffffffff1673ffffffffffffffffffffffffffffffffffffffff1662000f20620014db565b73ffffffffffffffffffffffffffffffffffffffff1614905090565b60046020528060005260406000206000915054906101000a900473ffffffffffffffffffffffffffffffffffffffff1681565b6000600460008373ffffffffffffffffffffffffffffffffffffffff1673ffffffffffffffffffffffffffffffffffffffff16815260200190815260200160002060009054906101000a900473ffffffffffffffffffffffffffffffffffffffff169050919050565b6000600360008373ffffffffffffffffffffffffffffffffffffffff1673ffffffffffffffffffffffffffffffffffffffff16815260200190815260200160002060009054906101000a900473ffffffffffffffffffffffffffffffffffffffff169050919050565b60008073ffffffffffffffffffffffffffffffffffffffff16600560008473ffffffffffffffffffffffffffffffffffffffff1673ffffffffffffffffffffffffffffffffffffffff16815260200190815260200160002060009054906101000a900473ffffffffffffffffffffffffffffffffffffffff1673ffffffffffffffffffffffffffffffffffffffff16149050919050565b600081620010e68162000cde565b151562001181576040517f08c379a000000000000000000000000000000000000000000000000000000000815260040180806020018281038252602b8152602001807f4f6e6c794e65775265736964656e743a207265736964656e7420697320616c7281526020017f656164792065786973742000000000000000000000000000000000000000000081525060400191505060405180910390fd5b82600260009054906101000a900473ffffffffffffffffffffffffffffffffffffffff16620011af6200167e565b808373ffffffffffffffffffffffffffffffffffffffff1673ffffffffffffffffffffffffffffffffffffffff1681526020018273ffffffffffffffffffffffffffffffffffffffff1673ffffffffffffffffffffffffffffffffffffffff16815260200192505050604051809103906000f08015801562001235573d6000803e3d6000fd5b50600360008573ffffffffffffffffffffffffffffffffffffffff1673ffffffffffffffffffffffffffffffffffffffff16815260200190815260200160002060006101000a81548173ffffffffffffffffffffffffffffffffffffffff021916908373ffffffffffffffffffffffffffffffffffffffff160217905550600360008473ffffffffffffffffffffffffffffffffffffffff1673ffffffffffffffffffffffffffffffffffffffff16815260200190815260200160002060009054906101000a900473ffffffffffffffffffffffffffffffffffffffff16915050919050565b60008073ffffffffffffffffffffffffffffffffffffffff16600460008473ffffffffffffffffffffffffffffffffffffffff1673ffffffffffffffffffffffffffffffffffffffff16815260200190815260200160002060009054906101000a900473ffffffffffffffffffffffffffffffffffffffff1673ffffffffffffffffffffffffffffffffffffffff16149050919050565b60036020528060005260406000206000915054906101000a900473ffffffffffffffffffffffffffffffffffffffff1681565b6000600560008373ffffffffffffffffffffffffffffffffffffffff1673ffffffffffffffffffffffffffffffffffffffff16815260200190815260200160002060009054906101000a900473ffffffffffffffffffffffffffffffffffffffff169050919050565b6200145862000edc565b1515620014cd576040517f08c379a00000000000000000000000000000000000000000000000000000000081526004018080602001828103825260208152602001807f4f776e61626c653a2063616c6c6572206973206e6f7420746865206f776e657281525060200191505060405180910390fd5b620014d881620014e3565b50565b600033905090565b600073ffffffffffffffffffffffffffffffffffffffff168173ffffffffffffffffffffffffffffffffffffffff1614151515620015af576040517f08c379a00000000000000000000000000000000000000000000000000000000081526004018080602001828103825260268152602001807f4f776e61626c653a206e6577206f776e657220697320746865207a65726f206181526020017f646472657373000000000000000000000000000000000000000000000000000081525060400191505060405180910390fd5b8073ffffffffffffffffffffffffffffffffffffffff166000809054906101000a900473ffffffffffffffffffffffffffffffffffffffff1673ffffffffffffffffffffffffffffffffffffffff167f8be0079c531659141344cd1fd0a4f28419497f9722a3daafe3b4186f6b6457e060405160405180910390a3806000806101000a81548173ffffffffffffffffffffffffffffffffffffffff021916908373ffffffffffffffffffffffffffffffffffffffff16021790555050565b6040516108e1806200169083390190565b6040516122e88062001f718339019056fe608060405234801561001057600080fd5b506040516020806108e18339810180604052602081101561003057600080fd5b8101908080519060200190929190505050600061005a610116640100000000026401000000009004565b9050806000806101000a81548173ffffffffffffffffffffffffffffffffffffffff021916908373ffffffffffffffffffffffffffffffffffffffff1602179055508073ffffffffffffffffffffffffffffffffffffffff16600073ffffffffffffffffffffffffffffffffffffffff167f8be0079c531659141344cd1fd0a4f28419497f9722a3daafe3b4186f6b6457e060405160405180910390a3506101108161011e640100000000026401000000009004565b506102a7565b600033905090565b600073ffffffffffffffffffffffffffffffffffffffff168173ffffffffffffffffffffffffffffffffffffffff16141515156101e9576040517f08c379a00000000000000000000000000000000000000000000000000000000081526004018080602001828103825260268152602001807f4f776e61626c653a206e6577206f776e657220697320746865207a65726f206181526020017f646472657373000000000000000000000000000000000000000000000000000081525060400191505060405180910390fd5b8073ffffffffffffffffffffffffffffffffffffffff166000809054906101000a900473ffffffffffffffffffffffffffffffffffffffff1673ffffffffffffffffffffffffffffffffffffffff167f8be0079c531659141344cd1fd0a4f28419497f9722a3daafe3b4186f6b6457e060405160405180910390a3806000806101000a81548173ffffffffffffffffffffffffffffffffffffffff021916908373ffffffffffffffffffffffffffffffffffffffff16021790555050565b61062b806102b66000396000f3fe60806040526004361061006d576000357c0100000000000000000000000000000000000000000000000000000000900463ffffffff168063715018a6146100725780638da5cb5b146100895780638f32d59b146100e05780639a268f351461010f578063f2fde38b146101a0575b600080fd5b34801561007e57600080fd5b506100876101f1565b005b34801561009557600080fd5b5061009e61032c565b604051808273ffffffffffffffffffffffffffffffffffffffff1673ffffffffffffffffffffffffffffffffffffffff16815260200191505060405180910390f35b3480156100ec57600080fd5b506100f5610355565b604051808215151515815260200191505060405180910390f35b34801561011b57600080fd5b5061015e6004803603602081101561013257600080fd5b81019080803573ffffffffffffffffffffffffffffffffffffffff1690602001909291905050506103b3565b604051808273ffffffffffffffffffffffffffffffffffffffff1673ffffffffffffffffffffffffffffffffffffffff16815260200191505060405180910390f35b3480156101ac57600080fd5b506101ef600480360360208110156101c357600080fd5b81019080803573ffffffffffffffffffffffffffffffffffffffff1690602001909291905050506103e6565b005b6101f9610355565b151561026d576040517f08c379a00000000000000000000000000000000000000000000000000000000081526004018080602001828103825260208152602001807f4f776e61626c653a2063616c6c6572206973206e6f7420746865206f776e657281525060200191505060405180910390fd5b600073ffffffffffffffffffffffffffffffffffffffff166000809054906101000a900473ffffffffffffffffffffffffffffffffffffffff1673ffffffffffffffffffffffffffffffffffffffff167f8be0079c531659141344cd1fd0a4f28419497f9722a3daafe3b4186f6b6457e060405160405180910390a360008060006101000a81548173ffffffffffffffffffffffffffffffffffffffff021916908373ffffffffffffffffffffffffffffffffffffffff160217905550565b60008060009054906101000a900473ffffffffffffffffffffffffffffffffffffffff16905090565b60008060009054906101000a900473ffffffffffffffffffffffffffffffffffffffff1673ffffffffffffffffffffffffffffffffffffffff1661039761046e565b73ffffffffffffffffffffffffffffffffffffffff1614905090565b60016020528060005260406000206000915054906101000a900473ffffffffffffffffffffffffffffffffffffffff1681565b6103ee610355565b1515610462576040517f08c379a00000000000000000000000000000000000000000000000000000000081526004018080602001828103825260208152602001807f4f776e61626c653a2063616c6c6572206973206e6f7420746865206f776e657281525060200191505060405180910390fd5b61046b81610476565b50565b600033905090565b600073ffffffffffffffffffffffffffffffffffffffff168173ffffffffffffffffffffffffffffffffffffffff1614151515610541576040517f08c379a00000000000000000000000000000000000000000000000000000000081526004018080602001828103825260268152602001807f4f776e61626c653a206e6577206f776e657220697320746865207a65726f206181526020017f646472657373000000000000000000000000000000000000000000000000000081525060400191505060405180910390fd5b8073ffffffffffffffffffffffffffffffffffffffff166000809054906101000a900473ffffffffffffffffffffffffffffffffffffffff1673ffffffffffffffffffffffffffffffffffffffff167f8be0079c531659141344cd1fd0a4f28419497f9722a3daafe3b4186f6b6457e060405160405180910390a3806000806101000a81548173ffffffffffffffffffffffffffffffffffffffff021916908373ffffffffffffffffffffffffffffffffffffffff1602179055505056fea165627a7a723058203cdb717036a17ad038bb1caf9fcf83f188dce0fd30595a828dd375a36ed4ba1a002960806040523480156200001157600080fd5b50604051604080620022e8833981018060405260408110156200003357600080fd5b8101908080519060200190929190805190602001909291905050506000620000696200016a640100000000026401000000009004565b9050806000806101000a81548173ffffffffffffffffffffffffffffffffffffffff021916908373ffffffffffffffffffffffffffffffffffffffff1602179055508073ffffffffffffffffffffffffffffffffffffffff16600073ffffffffffffffffffffffffffffffffffffffff167f8be0079c531659141344cd1fd0a4f28419497f9722a3daafe3b4186f6b6457e060405160405180910390a35080600360006101000a81548173ffffffffffffffffffffffffffffffffffffffff021916908373ffffffffffffffffffffffffffffffffffffffff160217905550620001628262000172640100000000026401000000009004565b5050620002fc565b600033905090565b600073ffffffffffffffffffffffffffffffffffffffff168173ffffffffffffffffffffffffffffffffffffffff16141515156200023e576040517f08c379a00000000000000000000000000000000000000000000000000000000081526004018080602001828103825260268152602001807f4f776e61626c653a206e6577206f776e657220697320746865207a65726f206181526020017f646472657373000000000000000000000000000000000000000000000000000081525060400191505060405180910390fd5b8073ffffffffffffffffffffffffffffffffffffffff166000809054906101000a900473ffffffffffffffffffffffffffffffffffffffff1673ffffffffffffffffffffffffffffffffffffffff167f8be0079c531659141344cd1fd0a4f28419497f9722a3daafe3b4186f6b6457e060405160405180910390a3806000806101000a81548173ffffffffffffffffffffffffffffffffffffffff021916908373ffffffffffffffffffffffffffffffffffffffff16021790555050565b611fdc806200030c6000396000f3fe6080604052600436106100d0576000357c0100000000000000000000000000000000000000000000000000000000900463ffffffff1680632f1ff733146100d557806332d95d871461012857806334e9a1f5146101535780633ba92845146101a85780634f073233146101fb578063573f239c14610323578063715018a61461037a5780638da5cb5b146103915780638f32d59b146103e8578063c128a5c014610417578063e124173f14610501578063e670569e14610530578063e9e23c201461055b578063f2fde38b14610645575b600080fd5b3480156100e157600080fd5b5061010e600480360360208110156100f857600080fd5b8101908080359060200190929190505050610696565b604051808215151515815260200191505060405180910390f35b34801561013457600080fd5b5061013d610bad565b6040518082815260200191505060405180910390f35b34801561015f57600080fd5b5061018e6004803603602081101561017657600080fd5b81019080803515159060200190929190505050610bb3565b604051808215151515815260200191505060405180910390f35b3480156101b457600080fd5b506101e1600480360360208110156101cb57600080fd5b8101908080359060200190929190505050610d32565b604051808215151515815260200191505060405180910390f35b34801561020757600080fd5b50610309600480360360c081101561021e57600080fd5b810190808035906020019064010000000081111561023b57600080fd5b82018360208201111561024d57600080fd5b8035906020019184600183028401116401000000008311171561026f57600080fd5b91908080601f016020809104026020016040519081016040528093929190818152602001838380828437600081840152601f19601f820116905080830192505050505050509192919290803590602001909291908035906020019092919080359060200190929190803573ffffffffffffffffffffffffffffffffffffffff16906020019092919080359060200190929190505050611327565b604051808215151515815260200191505060405180910390f35b34801561032f57600080fd5b5061033861163a565b604051808273ffffffffffffffffffffffffffffffffffffffff1673ffffffffffffffffffffffffffffffffffffffff16815260200191505060405180910390f35b34801561038657600080fd5b5061038f611660565b005b34801561039d57600080fd5b506103a661179b565b604051808273ffffffffffffffffffffffffffffffffffffffff1673ffffffffffffffffffffffffffffffffffffffff16815260200191505060405180910390f35b3480156103f457600080fd5b506103fd6117c4565b604051808215151515815260200191505060405180910390f35b34801561042357600080fd5b506104e76004803603604081101561043a57600080fd5b810190808035906020019064010000000081111561045757600080fd5b82018360208201111561046957600080fd5b8035906020019184600183028401116401000000008311171561048b57600080fd5b91908080601f016020809104026020016040519081016040528093929190818152602001838380828437600081840152601f19601f82011690508083019250505050505050919291929080359060200190929190505050611822565b604051808215151515815260200191505060405180910390f35b34801561050d57600080fd5b50610516611967565b604051808215151515815260200191505060405180910390f35b34801561053c57600080fd5b5061054561197a565b6040518082815260200191505060405180910390f35b34801561056757600080fd5b5061062b6004803603604081101561057e57600080fd5b810190808035906020019064010000000081111561059b57600080fd5b8201836020820111156105ad57600080fd5b803590602001918460018302840111640100000000831117156105cf57600080fd5b91908080601f016020809104026020016040519081016040528093929190818152602001838380828437600081840152601f19601f82011690508083019250505050505050919291929080359060200190929190505050611980565b604051808215151515815260200191505060405180910390f35b34801561065157600080fd5b506106946004803603602081101561066857600080fd5b81019080803573ffffffffffffffffffffffffffffffffffffffff169060200190929190505050611af2565b005b60006106a06117c4565b1515610714576040517f08c379a00000000000000000000000000000000000000000000000000000000081526004018080602001828103825260208152602001807f4f776e61626c653a2063616c6c6572206973206e6f7420746865206f776e657281525060200191505060405180910390fd5b6000600360009054906101000a900473ffffffffffffffffffffffffffffffffffffffff1673ffffffffffffffffffffffffffffffffffffffff16631858b2a4600360009054906101000a900473ffffffffffffffffffffffffffffffffffffffff1673ffffffffffffffffffffffffffffffffffffffff166325b00e52866040518263ffffffff167c01000000000000000000000000000000000000000000000000000000000281526004018082815260200191505060206040518083038186803b1580156107e357600080fd5b505afa1580156107f7573d6000803e3d6000fd5b505050506040513d602081101561080d57600080fd5b8101908080519060200190929190505050600360009054906101000a900473ffffffffffffffffffffffffffffffffffffffff1673ffffffffffffffffffffffffffffffffffffffff1663a9860cc4876040518263ffffffff167c01000000000000000000000000000000000000000000000000000000000281526004018082815260200191505060206040518083038186803b1580156108ad57600080fd5b505afa1580156108c1573d6000803e3d6000fd5b505050506040513d60208110156108d757600080fd5b81019080805190602001909291905050506040518363ffffffff167c0100000000000000000000000000000000000000000000000000000000028152600401808381526020018281526020019250505060206040518083038186803b15801561093f57600080fd5b505afa158015610953573d6000803e3d6000fd5b505050506040513d602081101561096957600080fd5b8101908080519060200190929190505050905061099181600154611b7a90919063ffffffff16565b506109a760025482611b7a90919063ffffffff16565b50610a79600360009054906101000a900473ffffffffffffffffffffffffffffffffffffffff1673ffffffffffffffffffffffffffffffffffffffff16632c4e722e6040518163ffffffff167c010000000000000000000000000000000000000000000000000000000002815260040160206040518083038186803b158015610a2f57600080fd5b505afa158015610a43573d6000803e3d6000fd5b505050506040513d6020811015610a5957600080fd5b810190808051906020019092919050505082611c0490919063ffffffff16565b600281905550600360009054906101000a900473ffffffffffffffffffffffffffffffffffffffff1673ffffffffffffffffffffffffffffffffffffffff166397e93d9284610ad360025485611c4e90919063ffffffff16565b610adb61179b565b6040518463ffffffff167c0100000000000000000000000000000000000000000000000000000000028152600401808481526020018381526020018273ffffffffffffffffffffffffffffffffffffffff1673ffffffffffffffffffffffffffffffffffffffff1681526020019350505050602060405180830381600087803b158015610b6757600080fd5b505af1158015610b7b573d6000803e3d6000fd5b505050506040513d6020811015610b9157600080fd5b8101908080519060200190929190505050506001915050919050565b60015481565b6000600360009054906101000a900473ffffffffffffffffffffffffffffffffffffffff1673ffffffffffffffffffffffffffffffffffffffff16638f32d59b6040518163ffffffff167c010000000000000000000000000000000000000000000000000000000002815260040160206040518083038186803b158015610c3957600080fd5b505afa158015610c4d573d6000803e3d6000fd5b505050506040513d6020811015610c6357600080fd5b8101908080519060200190929190505050151515610d0f576040517f08c379a000000000000000000000000000000000000000000000000000000000815260040180806020018281038252602c8152602001807f6f6e6c794f72673a2063616c6c657220646f6573206e6f74206861766520746881526020017f652059434f726720726f6c65000000000000000000000000000000000000000081525060400191505060405180910390fd5b81600060146101000a81548160ff02191690831515021790555060019050919050565b6000600360009054906101000a900473ffffffffffffffffffffffffffffffffffffffff1673ffffffffffffffffffffffffffffffffffffffff16638f32d59b6040518163ffffffff167c010000000000000000000000000000000000000000000000000000000002815260040160206040518083038186803b158015610db857600080fd5b505afa158015610dcc573d6000803e3d6000fd5b505050506040513d6020811015610de257600080fd5b8101908080519060200190929190505050151515610e8e576040517f08c379a000000000000000000000000000000000000000000000000000000000815260040180806020018281038252602c8152602001807f6f6e6c794f72673a2063616c6c657220646f6573206e6f74206861766520746881526020017f652059434f726720726f6c65000000000000000000000000000000000000000081525060400191505060405180910390fd5b6000600360009054906101000a900473ffffffffffffffffffffffffffffffffffffffff1673ffffffffffffffffffffffffffffffffffffffff1663eaf4bf3a600360009054906101000a900473ffffffffffffffffffffffffffffffffffffffff1673ffffffffffffffffffffffffffffffffffffffff166325b00e52866040518263ffffffff167c01000000000000000000000000000000000000000000000000000000000281526004018082815260200191505060206040518083038186803b158015610f5d57600080fd5b505afa158015610f71573d6000803e3d6000fd5b505050506040513d6020811015610f8757600080fd5b8101908080519060200190929190505050600360009054906101000a900473ffffffffffffffffffffffffffffffffffffffff1673ffffffffffffffffffffffffffffffffffffffff1663a9860cc4876040518263ffffffff167c01000000000000000000000000000000000000000000000000000000000281526004018082815260200191505060206040518083038186803b15801561102757600080fd5b505afa15801561103b573d6000803e3d6000fd5b505050506040513d602081101561105157600080fd5b81019080805190602001909291905050506040518363ffffffff167c0100000000000000000000000000000000000000000000000000000000028152600401808381526020018281526020019250505060206040518083038186803b1580156110b957600080fd5b505afa1580156110cd573d6000803e3d6000fd5b505050506040513d60208110156110e357600080fd5b8101908080519060200190929190505050905061110b81600154611b7a90919063ffffffff16565b5061112160025482611b7a90919063ffffffff16565b506111f3600360009054906101000a900473ffffffffffffffffffffffffffffffffffffffff1673ffffffffffffffffffffffffffffffffffffffff16632c4e722e6040518163ffffffff167c010000000000000000000000000000000000000000000000000000000002815260040160206040518083038186803b1580156111a957600080fd5b505afa1580156111bd573d6000803e3d6000fd5b505050506040513d60208110156111d357600080fd5b810190808051906020019092919050505082611c0490919063ffffffff16565b600281905550600360009054906101000a900473ffffffffffffffffffffffffffffffffffffffff1673ffffffffffffffffffffffffffffffffffffffff1663518f6bec8461124d60025485611c4e90919063ffffffff16565b61125561179b565b6040518463ffffffff167c0100000000000000000000000000000000000000000000000000000000028152600401808481526020018381526020018273ffffffffffffffffffffffffffffffffffffffff1673ffffffffffffffffffffffffffffffffffffffff1681526020019350505050602060405180830381600087803b1580156112e157600080fd5b505af11580156112f5573d6000803e3d6000fd5b505050506040513d602081101561130b57600080fd5b8101908080519060200190929190505050506001915050919050565b60008060149054906101000a900460ff1615156113d2576040517f08c379a00000000000000000000000000000000000000000000000000000000081526004018080602001828103825260368152602001807f6f6e6c79436f6c6c6563746f723a2063616c6c657220646f6573206e6f74206881526020017f6176652074686520436f6c6c6563746f7220726f6c650000000000000000000081525060400191505060405180910390fd5b600360009054906101000a900473ffffffffffffffffffffffffffffffffffffffff1673ffffffffffffffffffffffffffffffffffffffff1663a6b1a2eb88888888888861141e61179b565b6040518863ffffffff167c010000000000000000000000000000000000000000000000000000000002815260040180806020018881526020018781526020018681526020018573ffffffffffffffffffffffffffffffffffffffff1673ffffffffffffffffffffffffffffffffffffffff1681526020018481526020018373ffffffffffffffffffffffffffffffffffffffff1673ffffffffffffffffffffffffffffffffffffffff168152602001828103825289818151815260200191508051906020019080838360005b838110156115055780820151818401526020810190506114ea565b50505050905090810190601f1680156115325780820380516001836020036101000a031916815260200191505b5098505050505050505050602060405180830381600087803b15801561155757600080fd5b505af115801561156b573d6000803e3d6000fd5b505050506040513d602081101561158157600080fd5b8101908080519060200190929190505050151561162c576040517f08c379a000000000000000000000000000000000000000000000000000000000815260040180806020018281038252602c8152602001807f63616c6c696e672061646444656c6976657261626c65732066756e6374696f6e81526020017f206861732069737375657320000000000000000000000000000000000000000081525060400191505060405180910390fd5b600190509695505050505050565b600360009054906101000a900473ffffffffffffffffffffffffffffffffffffffff1681565b6116686117c4565b15156116dc576040517f08c379a00000000000000000000000000000000000000000000000000000000081526004018080602001828103825260208152602001807f4f776e61626c653a2063616c6c6572206973206e6f7420746865206f776e657281525060200191505060405180910390fd5b600073ffffffffffffffffffffffffffffffffffffffff166000809054906101000a900473ffffffffffffffffffffffffffffffffffffffff1673ffffffffffffffffffffffffffffffffffffffff167f8be0079c531659141344cd1fd0a4f28419497f9722a3daafe3b4186f6b6457e060405160405180910390a360008060006101000a81548173ffffffffffffffffffffffffffffffffffffffff021916908373ffffffffffffffffffffffffffffffffffffffff160217905550565b60008060009054906101000a900473ffffffffffffffffffffffffffffffffffffffff16905090565b60008060009054906101000a900473ffffffffffffffffffffffffffffffffffffffff1673ffffffffffffffffffffffffffffffffffffffff16611806611c98565b73ffffffffffffffffffffffffffffffffffffffff1614905090565b600061182c6117c4565b15156118a0576040517f08c379a00000000000000000000000000000000000000000000000000000000081526004018080602001828103825260208152602001807f4f776e61626c653a2063616c6c6572206973206e6f7420746865206f776e657281525060200191505060405180910390fd5b43403373ffffffffffffffffffffffffffffffffffffffff167fcd15987b0f6378bc78743de8e09ad9dbff0e9e29c40bde7e7b0ee297b8823bf785856040518080602001838152602001828103825284818151815260200191508051906020019080838360005b83811015611922578082015181840152602081019050611907565b50505050905090810190601f16801561194f5780820380516001836020036101000a031916815260200191505b50935050505060405180910390a36001905092915050565b600060149054906101000a900460ff1681565b60025481565b60008060149054906101000a900460ff161515611a2b576040517f08c379a00000000000000000000000000000000000000000000000000000000081526004018080602001828103825260368152602001807f6f6e6c79436f6c6c6563746f723a2063616c6c657220646f6573206e6f74206881526020017f6176652074686520436f6c6c6563746f7220726f6c650000000000000000000081525060400191505060405180910390fd5b43403373ffffffffffffffffffffffffffffffffffffffff167f52024c344318d2183e9ba73517c3ae72f642c642d033bed8b89aecbbd5f06c6285856040518080602001838152602001828103825284818151815260200191508051906020019080838360005b83811015611aad578082015181840152602081019050611a92565b50505050905090810190601f168015611ada5780820380516001836020036101000a031916815260200191505b50935050505060405180910390a36001905092915050565b611afa6117c4565b1515611b6e576040517f08c379a00000000000000000000000000000000000000000000000000000000081526004018080602001828103825260208152602001807f4f776e61626c653a2063616c6c6572206973206e6f7420746865206f776e657281525060200191505060405180910390fd5b611b7781611ca0565b50565b6000808284019050838110151515611bfa576040517f08c379a000000000000000000000000000000000000000000000000000000000815260040180806020018281038252601b8152602001807f536166654d6174683a206164646974696f6e206f766572666c6f77000000000081525060200191505060405180910390fd5b8091505092915050565b6000611c4683836040805190810160405280601881526020017f536166654d6174683a206d6f64756c6f206279207a65726f0000000000000000815250611e29565b905092915050565b6000611c9083836040805190810160405280601e81526020017f536166654d6174683a207375627472616374696f6e206f766572666c6f770000815250611eee565b905092915050565b600033905090565b600073ffffffffffffffffffffffffffffffffffffffff168173ffffffffffffffffffffffffffffffffffffffff1614151515611d6b576040517f08c379a00000000000000000000000000000000000000000000000000000000081526004018080602001828103825260268152602001807f4f776e61626c653a206e6577206f776e657220697320746865207a65726f206181526020017f646472657373000000000000000000000000000000000000000000000000000081525060400191505060405180910390fd5b8073ffffffffffffffffffffffffffffffffffffffff166000809054906101000a900473ffffffffffffffffffffffffffffffffffffffff1673ffffffffffffffffffffffffffffffffffffffff167f8be0079c531659141344cd1fd0a4f28419497f9722a3daafe3b4186f6b6457e060405160405180910390a3806000806101000a81548173ffffffffffffffffffffffffffffffffffffffff021916908373ffffffffffffffffffffffffffffffffffffffff16021790555050565b60008083141582901515611ed8576040517f08c379a00000000000000000000000000000000000000000000000000000000081526004018080602001828103825283818151815260200191508051906020019080838360005b83811015611e9d578082015181840152602081019050611e82565b50505050905090810190601f168015611eca5780820380516001836020036101000a031916815260200191505b509250505060405180910390fd5b508284811515611ee457fe5b0690509392505050565b60008383111582901515611f9d576040517f08c379a00000000000000000000000000000000000000000000000000000000081526004018080602001828103825283818151815260200191508051906020019080838360005b83811015611f62578082015181840152602081019050611f47565b50505050905090810190601f168015611f8f5780820380516001836020036101000a031916815260200191505b509250505060405180910390fd5b506000838503905080915050939250505056fea165627a7a723058208b7dbdc180d3635098c46794212cbfef2a0f4e24f5671aa05c22e6d9c312085b0029a165627a7a72305820db326873e937d320087488f52de6f1cab1460be31973f1b6ff9e385a7703c8590029",
  "source": "pragma solidity ^0.5.0;\nimport '../node_modules/@openzeppelin/contracts/ownership/Ownable.sol';\n\nimport '../node_modules/@openzeppelin/contracts/math/SafeMath.sol';\n\nimport './YCAdminRole.sol';\nimport './OrgWallet.sol';\nimport './UserFactory.sol';\nimport './DeliverableService.sol';\n\ncontract OrgRegistry is Ownable ,   OrgWallet , DeliverableService{\n    using SafeMath for uint256;\n    YCAdminRole public admin ;\n    UserFactory public userFactory ;\n    \n    // var\n    uint256 public residentRate =2;\n    uint256 public collectorRate = 8;\n    bool status ;\n     mapping   (uint256=>TrashDetails) public trashList;\n    struct TrashDetails{\n        string name;\n        string UnitName;\n        uint256 unitMaltiplier;\n        uint256 price;\n    }\n\n\n\n    constructor(address _owner, YCAdminRole _admin,IERC20 token, uint256 rate) OrgWallet( token, rate)public{\n        _transferOwnership(_owner);\n        admin = _admin;\n       \n        userFactory = new UserFactory( _owner,  _admin,this);\n}\n\n// modifier\nmodifier onlyAdmin() {\n    require(admin.isYCAdmin(_msgSender()),\"onlyAdmin: caller does not have the YCAdmin role\");\n    _;\n}\nmodifier onlyCollector(address account) {\n    require(userFactory.getCollector(account)==_msgSender(),\"onlyCollector: caller does not have the Collector role\");\n    _;\n}\nmodifier onlyResident(address account) {\n    require(userFactory.getResident(account)==_msgSender(),\"onlyResident: caller does not have the Resident role\");\n    _;\n}\nmodifier isApproved() {\n    require(status,\"isApproved: caller is not Approved\");\n    _;\n}\n\n\n\nfunction calcCollectorPoints(uint256  code, uint256 amount) public view returns (uint256) {\n\n    return  trashList[code].price.mul(amount.div(trashList[code].unitMaltiplier)).mul(collectorRate).div(10);\n}\nfunction calcResidentPoints(uint256  code, uint256 amount) public view returns (uint256) {\n \n    return  trashList[code].price.mul(amount.div(trashList[code].unitMaltiplier)).mul(residentRate).div(10);\n}\n\n// setter functions     \nfunction manageTrashType(uint256  code,string memory name,string memory UnitName,uint256 unitMaltiplier, uint256 price) public returns (bool) {\n    \n    trashList[code] = TrashDetails ( name, UnitName, unitMaltiplier, price);\n    return true;\n}\nfunction _redeemToken(uint256 points) internal returns (bool ) {\n    _transferTokens(_msgSender(),points);\n    return true;\n}\n\nfunction approve() public onlyAdmin() returns (bool) {\n    \nstatus = true;\n    return true;\n}\n\n       function addDelivery(string calldata location,uint256 time, uint256 code, uint256 amount,\n       address residnet,uint256 mapHash , address account ) external onlyCollector(account) returns (bool) {\n        \n        require(_addDelivery(mapHash, _msgSender(), residnet,\n     location, time, code, amount),\" calling _addDeliverables function has issues \");\n        // emit event\n                return true;\n\n    }\n\n    function validateDeliverables( uint256  mapHash, uint256 points, address account )external  onlyCollector(account)  returns (bool) {\n         require(_validateDeliverables(mapHash, true),\" calling _validateDeliverables function has issues \");\n                _redeemToken(points);\n\n        return true;\n    }\n    function confirmPickup( uint256  mapHash,uint256 points , address account )external onlyResident(account) returns (bool) {\n                require(_confirmPickup(mapHash,true),\"calling _validateDeliverables function has issues \");\n                _redeemToken(points);\n\n\n  \n        return true;\n    }\n \n\n\n  \n}",
  "sourcePath": "/mnt/6b0867de-74e1-417d-8281-ce67ccf712c6/LocalD/work/yallah-clean/yc-smart-contract/contracts/OrgRegistry.sol",
  "compiler": {
    "name": "solc",
    "version": "0.5.0+commit.1d4f565a.Emscripten.clang"
  },
  "schemaVersion": "3.0.23",
  "updatedAt": "2020-03-19T03:34:46.273Z",
  "networkType": "quorum",
  "devdoc": {
    "methods": {
      "isOwner()": {
        "details": "Returns true if the caller is the current owner."
      },
      "owner()": {
        "details": "Returns the address of the current owner."
      },
      "pointRaised()": {
        "return": "the amount of point raised."
      },
      "rate()": {
        "return": "the number of token units a buyer gets per point."
      },
      "renounceOwnership()": {
        "details": "Leaves the contract without owner. It will not be possible to call `onlyOwner` functions anymore. Can only be called by the current owner.     * NOTE: Renouncing ownership will leave the contract without an owner, thereby removing any functionality that is only available to the owner."
      },
      "token()": {
        "return": "the token being sold."
      },
      "transferOwnership(address)": {
        "details": "Transfers ownership of the contract to a new account (`newOwner`). Can only be called by the current owner."
      }
    }
  },
  "userdoc": {
    "methods": {}
  }
}