{
  "contractName": "OrgWallet",
  "abi": [
    {
      "inputs": [
        {
          "name": "token",
          "type": "address"
        },
        {
          "name": "rate",
          "type": "uint256"
        }
      ],
      "payable": false,
      "stateMutability": "nonpayable",
      "type": "constructor"
    },
    {
      "payable": true,
      "stateMutability": "payable",
      "type": "fallback"
    },
    {
      "anonymous": false,
      "inputs": [
        {
          "indexed": true,
          "name": "purchaser",
          "type": "address"
        },
        {
          "indexed": true,
          "name": "beneficiary",
          "type": "address"
        },
        {
          "indexed": false,
          "name": "value",
          "type": "uint256"
        },
        {
          "indexed": false,
          "name": "amount",
          "type": "uint256"
        }
      ],
      "name": "TokensPurchased",
      "type": "event"
    },
    {
      "constant": true,
      "inputs": [],
      "name": "token",
      "outputs": [
        {
          "name": "",
          "type": "address"
        }
      ],
      "payable": false,
      "stateMutability": "view",
      "type": "function"
    },
    {
      "constant": true,
      "inputs": [],
      "name": "rate",
      "outputs": [
        {
          "name": "",
          "type": "uint256"
        }
      ],
      "payable": false,
      "stateMutability": "view",
      "type": "function"
    },
    {
      "constant": true,
      "inputs": [],
      "name": "pointRaised",
      "outputs": [
        {
          "name": "",
          "type": "uint256"
        }
      ],
      "payable": false,
      "stateMutability": "view",
      "type": "function"
    }
  ],
  "bytecode": "0x608060405234801561001057600080fd5b506040516040806102998339810180604052604081101561003057600080fd5b81019080805190602001909291908051906020019092919050505060016000806101000a81548160ff0219169083151502179055508060018190555081600060016101000a81548173ffffffffffffffffffffffffffffffffffffffff021916908373ffffffffffffffffffffffffffffffffffffffff16021790555050506101db806100be6000396000f3fe608060405260043610610057576000357c0100000000000000000000000000000000000000000000000000000000900463ffffffff1680632c4e722e146100c557806381e78b50146100f0578063fc0c546a1461011b575b6040517f08c379a00000000000000000000000000000000000000000000000000000000081526004018080602001828103825260138152602001807f457468206973206e6f742061636365707465640000000000000000000000000081525060200191505060405180910390fd5b3480156100d157600080fd5b506100da610172565b6040518082815260200191505060405180910390f35b3480156100fc57600080fd5b5061010561017c565b6040518082815260200191505060405180910390f35b34801561012757600080fd5b50610130610186565b604051808273ffffffffffffffffffffffffffffffffffffffff1673ffffffffffffffffffffffffffffffffffffffff16815260200191505060405180910390f35b6000600154905090565b6000600254905090565b60008060019054906101000a900473ffffffffffffffffffffffffffffffffffffffff1690509056fea165627a7a72305820256579e9c2b9126fffe6b630292438fa244732da8946fab82e339f331a3182fb0029",
  "source": "pragma solidity ^0.5.0;\nimport '../node_modules/@openzeppelin/contracts/token/ERC20/IERC20.sol';\nimport '../node_modules/@openzeppelin/contracts/utils/ReentrancyGuard.sol';\nimport '../node_modules/@openzeppelin/contracts/GSN/Context.sol';\nimport '../node_modules/@openzeppelin/contracts/math/SafeMath.sol';\n\n\ncontract OrgWallet is  Context, ReentrancyGuard{\n    using SafeMath for uint256;\n\n    IERC20 _token ;\n    \n    // var\n    uint private _rate;\n    uint private _pointRaised;\n\n\n\n\n\n    /**\n     * Event for token purchase logging\n     * @param purchaser who paid for the tokens\n     * @param beneficiary who got the tokens\n     * @param value points paid for purchase\n     * @param amount amount of tokens purchased\n     */\n    event TokensPurchased(address indexed purchaser, address indexed beneficiary, uint256 value, uint256 amount);\n\n    constructor( IERC20 token,uint256 rate) public{\n \n        _rate = rate;\n        _token = token;\n}\n\n\n\n\n\n    /**\n     * @dev fallback function \n     Don't Accepts ETH\n     */\n    function () external payable {\n       revert(\"Eth is not accepted\");\n    }\n\n    /**\n     * @return the token being sold.\n     */\n    function token() public view returns (IERC20) {\n        return _token;\n    }\n\n\n\n    /**\n     * @return the number of token units a buyer gets per point.\n     */\n    function rate() public view returns (uint256) {\n        return _rate;\n    }\n\n    /**\n     * @return the amount of point raised.\n     */\n    function pointRaised() public view returns (uint256) {\n        return _pointRaised;\n    }\n\n    /**\n     * @dev low level token purchase ***DO NOT OVERRIDE***\n     * This function has a non-reentrancy guard, so it shouldn't be called by\n     * another `nonReentrant` function.\n     * @param beneficiary Recipient of the token purchase\n     */\n    function _transferTokens(address beneficiary, uint256 pointAmount) internal  nonReentrant  {\n        _preValidatePurchase(beneficiary, pointAmount);\n\n        // calculate token amount to be created\n        uint256 tokens = _getTokenAmount(pointAmount);\n        _postValidatePurchase(pointAmount);\n        // update state\n        _pointRaised = _pointRaised.add(pointAmount);\n\n        _processPurchase(beneficiary, tokens);\n        emit TokensPurchased(_msgSender(), beneficiary, pointAmount, tokens);\n\n\n    }\n       /**\n     * @dev Validation of an executed purchase. Observe state and use revert statements to undo rollback when valid\n     * conditions are not met.\n     * @param pointAmount Value in point involved in the purchase\n     */\n    function _postValidatePurchase(uint256 pointAmount) internal view {\n        // solhint-disable-previous-line no-empty-blocks\n               require(_token.balanceOf(address(this)) > pointAmount,\"insufficient funds\");\n\n    }\n\n    /**\n     * @dev Validation of an incoming purchase. Use require statements to revert state when conditions are not met.\n     * Use `super` in contracts that inherit from Crowdsale to extend their validations.\n     * Example from CappedCrowdsale.sol's _preValidatePurchase method:\n     *     super._preValidatePurchase(beneficiary, pointAmount);\n     *     require(pointRaised().add(pointAmount) <= cap);\n     * @param beneficiary Address performing the token purchase\n     * @param pointAmount Value in point involved in the purchase\n     */\n    function _preValidatePurchase(address beneficiary, uint256 pointAmount) internal view {\n        require(beneficiary != address(0), \"Crowdsale: beneficiary is the zero address\");\n        require(pointAmount != 0, \"Crowdsale: pointAmount is 0\");\n        this; // silence state mutability warning without generating bytecode - see https://github.com/ethereum/solidity/issues/2691\n    }\n\n \n    /**\n     * @dev Source of tokens. Override this method to modify the way in which the crowdsale ultimately gets and sends\n     * its tokens.\n     * @param beneficiary Address performing the token purchase\n     * @param tokenAmount Number of tokens to be emitted\n     */\n    function _deliverTokens(address beneficiary, uint256 tokenAmount) internal {\n        _token.transfer(beneficiary, tokenAmount);\n    }\n\n    /**\n     * @dev Executed when a purchase has been validated and is ready to be executed. Doesn't necessarily emit/send\n     * tokens.\n     * @param beneficiary Address receiving the tokens\n     * @param tokenAmount Number of tokens to be purchased\n     */\n    function _processPurchase(address beneficiary, uint256 tokenAmount) internal {\n        _deliverTokens(beneficiary, tokenAmount);\n    }\n\n\n\n\n\n  /**\n     * @dev Override to extend the way in which tokener is converted to tokens.\n     * @param pointAmount Value in point to be converted into tokens\n     * @return Number of tokens that can be purchased with the specified _pointAmount\n     */\n    function _getTokenAmount(uint256 pointAmount) internal view returns (uint256) {\n        return pointAmount.div(_rate);\n    }\n  \n}",
  "sourcePath": "/mnt/6b0867de-74e1-417d-8281-ce67ccf712c6/LocalD/work/yallah-clean/yc-smart-contract/contracts/OrgWallet.sol",
  "compiler": {
    "name": "solc",
    "version": "0.5.0+commit.1d4f565a.Emscripten.clang"
  },
  "schemaVersion": "3.0.23",
  "updatedAt": "2020-03-19T02:57:26.727Z",
  "devdoc": {
    "methods": {
      "pointRaised()": {
        "return": "the amount of point raised."
      },
      "rate()": {
        "return": "the number of token units a buyer gets per point."
      },
      "token()": {
        "return": "the token being sold."
      }
    }
  },
  "userdoc": {
    "methods": {}
  }
}