{
  "contractName": "UserWallet",
  "abi": [
    {
      "constant": true,
      "inputs": [],
      "name": "raisedPoints",
      "outputs": [
        {
          "name": "",
          "type": "uint256"
        }
      ],
      "payable": false,
      "stateMutability": "view",
      "type": "function"
    },
    {
      "constant": true,
      "inputs": [],
      "name": "orgRegistry",
      "outputs": [
        {
          "name": "",
          "type": "address"
        }
      ],
      "payable": false,
      "stateMutability": "view",
      "type": "function"
    },
    {
      "constant": false,
      "inputs": [],
      "name": "renounceOwnership",
      "outputs": [],
      "payable": false,
      "stateMutability": "nonpayable",
      "type": "function"
    },
    {
      "constant": true,
      "inputs": [],
      "name": "owner",
      "outputs": [
        {
          "name": "",
          "type": "address"
        }
      ],
      "payable": false,
      "stateMutability": "view",
      "type": "function"
    },
    {
      "constant": true,
      "inputs": [],
      "name": "isOwner",
      "outputs": [
        {
          "name": "",
          "type": "bool"
        }
      ],
      "payable": false,
      "stateMutability": "view",
      "type": "function"
    },
    {
      "constant": true,
      "inputs": [],
      "name": "isCollector",
      "outputs": [
        {
          "name": "",
          "type": "bool"
        }
      ],
      "payable": false,
      "stateMutability": "view",
      "type": "function"
    },
    {
      "constant": true,
      "inputs": [],
      "name": "currentPoints",
      "outputs": [
        {
          "name": "",
          "type": "uint256"
        }
      ],
      "payable": false,
      "stateMutability": "view",
      "type": "function"
    },
    {
      "constant": false,
      "inputs": [
        {
          "name": "newOwner",
          "type": "address"
        }
      ],
      "name": "transferOwnership",
      "outputs": [],
      "payable": false,
      "stateMutability": "nonpayable",
      "type": "function"
    },
    {
      "inputs": [
        {
          "name": "_owner",
          "type": "address"
        },
        {
          "name": "_orgRegistry",
          "type": "address"
        }
      ],
      "payable": false,
      "stateMutability": "nonpayable",
      "type": "constructor"
    },
    {
      "anonymous": false,
      "inputs": [
        {
          "indexed": true,
          "name": "resident",
          "type": "address"
        },
        {
          "indexed": true,
          "name": "_blockhash",
          "type": "bytes32"
        },
        {
          "indexed": false,
          "name": "location",
          "type": "string"
        },
        {
          "indexed": false,
          "name": "time",
          "type": "uint256"
        }
      ],
      "name": "ResidentSendRequest",
      "type": "event"
    },
    {
      "anonymous": false,
      "inputs": [
        {
          "indexed": true,
          "name": "collector",
          "type": "address"
        },
        {
          "indexed": true,
          "name": "_blockhash",
          "type": "bytes32"
        },
        {
          "indexed": false,
          "name": "location",
          "type": "string"
        },
        {
          "indexed": false,
          "name": "time",
          "type": "uint256"
        }
      ],
      "name": "CollectorSubmitRequest",
      "type": "event"
    },
    {
      "anonymous": false,
      "inputs": [
        {
          "indexed": true,
          "name": "previousOwner",
          "type": "address"
        },
        {
          "indexed": true,
          "name": "newOwner",
          "type": "address"
        }
      ],
      "name": "OwnershipTransferred",
      "type": "event"
    },
    {
      "constant": false,
      "inputs": [
        {
          "name": "status",
          "type": "bool"
        }
      ],
      "name": "approveCollector",
      "outputs": [
        {
          "name": "",
          "type": "bool"
        }
      ],
      "payable": false,
      "stateMutability": "nonpayable",
      "type": "function"
    },
    {
      "constant": false,
      "inputs": [
        {
          "name": "location",
          "type": "string"
        },
        {
          "name": "time",
          "type": "uint256"
        }
      ],
      "name": "residentSendRequest",
      "outputs": [
        {
          "name": "",
          "type": "bool"
        }
      ],
      "payable": false,
      "stateMutability": "nonpayable",
      "type": "function"
    },
    {
      "constant": false,
      "inputs": [
        {
          "name": "bhash",
          "type": "uint256"
        }
      ],
      "name": "residentConfirm",
      "outputs": [
        {
          "name": "",
          "type": "bool"
        }
      ],
      "payable": false,
      "stateMutability": "nonpayable",
      "type": "function"
    },
    {
      "constant": false,
      "inputs": [
        {
          "name": "location",
          "type": "string"
        },
        {
          "name": "time",
          "type": "uint256"
        }
      ],
      "name": "collectorSubmitRequest",
      "outputs": [
        {
          "name": "",
          "type": "bool"
        }
      ],
      "payable": false,
      "stateMutability": "nonpayable",
      "type": "function"
    },
    {
      "constant": false,
      "inputs": [
        {
          "name": "location",
          "type": "string"
        },
        {
          "name": "time",
          "type": "uint256"
        },
        {
          "name": "code",
          "type": "uint256"
        },
        {
          "name": "amount",
          "type": "uint256"
        },
        {
          "name": "_resident",
          "type": "address"
        },
        {
          "name": "mapHash",
          "type": "uint256"
        }
      ],
      "name": "collectorAddDelivery",
      "outputs": [
        {
          "name": "",
          "type": "bool"
        }
      ],
      "payable": false,
      "stateMutability": "nonpayable",
      "type": "function"
    },
    {
      "constant": false,
      "inputs": [
        {
          "name": "bhash",
          "type": "uint256"
        }
      ],
      "name": "OrgConfirm",
      "outputs": [
        {
          "name": "",
          "type": "bool"
        }
      ],
      "payable": false,
      "stateMutability": "nonpayable",
      "type": "function"
    }
  ],
  "bytecode": "0x60806040523480156200001157600080fd5b50604051604080620022e8833981018060405260408110156200003357600080fd5b8101908080519060200190929190805190602001909291905050506000620000696200016a640100000000026401000000009004565b9050806000806101000a81548173ffffffffffffffffffffffffffffffffffffffff021916908373ffffffffffffffffffffffffffffffffffffffff1602179055508073ffffffffffffffffffffffffffffffffffffffff16600073ffffffffffffffffffffffffffffffffffffffff167f8be0079c531659141344cd1fd0a4f28419497f9722a3daafe3b4186f6b6457e060405160405180910390a35080600360006101000a81548173ffffffffffffffffffffffffffffffffffffffff021916908373ffffffffffffffffffffffffffffffffffffffff160217905550620001628262000172640100000000026401000000009004565b5050620002fc565b600033905090565b600073ffffffffffffffffffffffffffffffffffffffff168173ffffffffffffffffffffffffffffffffffffffff16141515156200023e576040517f08c379a00000000000000000000000000000000000000000000000000000000081526004018080602001828103825260268152602001807f4f776e61626c653a206e6577206f776e657220697320746865207a65726f206181526020017f646472657373000000000000000000000000000000000000000000000000000081525060400191505060405180910390fd5b8073ffffffffffffffffffffffffffffffffffffffff166000809054906101000a900473ffffffffffffffffffffffffffffffffffffffff1673ffffffffffffffffffffffffffffffffffffffff167f8be0079c531659141344cd1fd0a4f28419497f9722a3daafe3b4186f6b6457e060405160405180910390a3806000806101000a81548173ffffffffffffffffffffffffffffffffffffffff021916908373ffffffffffffffffffffffffffffffffffffffff16021790555050565b611fdc806200030c6000396000f3fe6080604052600436106100d0576000357c0100000000000000000000000000000000000000000000000000000000900463ffffffff1680632f1ff733146100d557806332d95d871461012857806334e9a1f5146101535780633ba92845146101a85780634f073233146101fb578063573f239c14610323578063715018a61461037a5780638da5cb5b146103915780638f32d59b146103e8578063c128a5c014610417578063e124173f14610501578063e670569e14610530578063e9e23c201461055b578063f2fde38b14610645575b600080fd5b3480156100e157600080fd5b5061010e600480360360208110156100f857600080fd5b8101908080359060200190929190505050610696565b604051808215151515815260200191505060405180910390f35b34801561013457600080fd5b5061013d610bad565b6040518082815260200191505060405180910390f35b34801561015f57600080fd5b5061018e6004803603602081101561017657600080fd5b81019080803515159060200190929190505050610bb3565b604051808215151515815260200191505060405180910390f35b3480156101b457600080fd5b506101e1600480360360208110156101cb57600080fd5b8101908080359060200190929190505050610d32565b604051808215151515815260200191505060405180910390f35b34801561020757600080fd5b50610309600480360360c081101561021e57600080fd5b810190808035906020019064010000000081111561023b57600080fd5b82018360208201111561024d57600080fd5b8035906020019184600183028401116401000000008311171561026f57600080fd5b91908080601f016020809104026020016040519081016040528093929190818152602001838380828437600081840152601f19601f820116905080830192505050505050509192919290803590602001909291908035906020019092919080359060200190929190803573ffffffffffffffffffffffffffffffffffffffff16906020019092919080359060200190929190505050611327565b604051808215151515815260200191505060405180910390f35b34801561032f57600080fd5b5061033861163a565b604051808273ffffffffffffffffffffffffffffffffffffffff1673ffffffffffffffffffffffffffffffffffffffff16815260200191505060405180910390f35b34801561038657600080fd5b5061038f611660565b005b34801561039d57600080fd5b506103a661179b565b604051808273ffffffffffffffffffffffffffffffffffffffff1673ffffffffffffffffffffffffffffffffffffffff16815260200191505060405180910390f35b3480156103f457600080fd5b506103fd6117c4565b604051808215151515815260200191505060405180910390f35b34801561042357600080fd5b506104e76004803603604081101561043a57600080fd5b810190808035906020019064010000000081111561045757600080fd5b82018360208201111561046957600080fd5b8035906020019184600183028401116401000000008311171561048b57600080fd5b91908080601f016020809104026020016040519081016040528093929190818152602001838380828437600081840152601f19601f82011690508083019250505050505050919291929080359060200190929190505050611822565b604051808215151515815260200191505060405180910390f35b34801561050d57600080fd5b50610516611967565b604051808215151515815260200191505060405180910390f35b34801561053c57600080fd5b5061054561197a565b6040518082815260200191505060405180910390f35b34801561056757600080fd5b5061062b6004803603604081101561057e57600080fd5b810190808035906020019064010000000081111561059b57600080fd5b8201836020820111156105ad57600080fd5b803590602001918460018302840111640100000000831117156105cf57600080fd5b91908080601f016020809104026020016040519081016040528093929190818152602001838380828437600081840152601f19601f82011690508083019250505050505050919291929080359060200190929190505050611980565b604051808215151515815260200191505060405180910390f35b34801561065157600080fd5b506106946004803603602081101561066857600080fd5b81019080803573ffffffffffffffffffffffffffffffffffffffff169060200190929190505050611af2565b005b60006106a06117c4565b1515610714576040517f08c379a00000000000000000000000000000000000000000000000000000000081526004018080602001828103825260208152602001807f4f776e61626c653a2063616c6c6572206973206e6f7420746865206f776e657281525060200191505060405180910390fd5b6000600360009054906101000a900473ffffffffffffffffffffffffffffffffffffffff1673ffffffffffffffffffffffffffffffffffffffff16631858b2a4600360009054906101000a900473ffffffffffffffffffffffffffffffffffffffff1673ffffffffffffffffffffffffffffffffffffffff166325b00e52866040518263ffffffff167c01000000000000000000000000000000000000000000000000000000000281526004018082815260200191505060206040518083038186803b1580156107e357600080fd5b505afa1580156107f7573d6000803e3d6000fd5b505050506040513d602081101561080d57600080fd5b8101908080519060200190929190505050600360009054906101000a900473ffffffffffffffffffffffffffffffffffffffff1673ffffffffffffffffffffffffffffffffffffffff1663a9860cc4876040518263ffffffff167c01000000000000000000000000000000000000000000000000000000000281526004018082815260200191505060206040518083038186803b1580156108ad57600080fd5b505afa1580156108c1573d6000803e3d6000fd5b505050506040513d60208110156108d757600080fd5b81019080805190602001909291905050506040518363ffffffff167c0100000000000000000000000000000000000000000000000000000000028152600401808381526020018281526020019250505060206040518083038186803b15801561093f57600080fd5b505afa158015610953573d6000803e3d6000fd5b505050506040513d602081101561096957600080fd5b8101908080519060200190929190505050905061099181600154611b7a90919063ffffffff16565b506109a760025482611b7a90919063ffffffff16565b50610a79600360009054906101000a900473ffffffffffffffffffffffffffffffffffffffff1673ffffffffffffffffffffffffffffffffffffffff16632c4e722e6040518163ffffffff167c010000000000000000000000000000000000000000000000000000000002815260040160206040518083038186803b158015610a2f57600080fd5b505afa158015610a43573d6000803e3d6000fd5b505050506040513d6020811015610a5957600080fd5b810190808051906020019092919050505082611c0490919063ffffffff16565b600281905550600360009054906101000a900473ffffffffffffffffffffffffffffffffffffffff1673ffffffffffffffffffffffffffffffffffffffff166397e93d9284610ad360025485611c4e90919063ffffffff16565b610adb61179b565b6040518463ffffffff167c0100000000000000000000000000000000000000000000000000000000028152600401808481526020018381526020018273ffffffffffffffffffffffffffffffffffffffff1673ffffffffffffffffffffffffffffffffffffffff1681526020019350505050602060405180830381600087803b158015610b6757600080fd5b505af1158015610b7b573d6000803e3d6000fd5b505050506040513d6020811015610b9157600080fd5b8101908080519060200190929190505050506001915050919050565b60015481565b6000600360009054906101000a900473ffffffffffffffffffffffffffffffffffffffff1673ffffffffffffffffffffffffffffffffffffffff16638f32d59b6040518163ffffffff167c010000000000000000000000000000000000000000000000000000000002815260040160206040518083038186803b158015610c3957600080fd5b505afa158015610c4d573d6000803e3d6000fd5b505050506040513d6020811015610c6357600080fd5b8101908080519060200190929190505050151515610d0f576040517f08c379a000000000000000000000000000000000000000000000000000000000815260040180806020018281038252602c8152602001807f6f6e6c794f72673a2063616c6c657220646f6573206e6f74206861766520746881526020017f652059434f726720726f6c65000000000000000000000000000000000000000081525060400191505060405180910390fd5b81600060146101000a81548160ff02191690831515021790555060019050919050565b6000600360009054906101000a900473ffffffffffffffffffffffffffffffffffffffff1673ffffffffffffffffffffffffffffffffffffffff16638f32d59b6040518163ffffffff167c010000000000000000000000000000000000000000000000000000000002815260040160206040518083038186803b158015610db857600080fd5b505afa158015610dcc573d6000803e3d6000fd5b505050506040513d6020811015610de257600080fd5b8101908080519060200190929190505050151515610e8e576040517f08c379a000000000000000000000000000000000000000000000000000000000815260040180806020018281038252602c8152602001807f6f6e6c794f72673a2063616c6c657220646f6573206e6f74206861766520746881526020017f652059434f726720726f6c65000000000000000000000000000000000000000081525060400191505060405180910390fd5b6000600360009054906101000a900473ffffffffffffffffffffffffffffffffffffffff1673ffffffffffffffffffffffffffffffffffffffff1663eaf4bf3a600360009054906101000a900473ffffffffffffffffffffffffffffffffffffffff1673ffffffffffffffffffffffffffffffffffffffff166325b00e52866040518263ffffffff167c01000000000000000000000000000000000000000000000000000000000281526004018082815260200191505060206040518083038186803b158015610f5d57600080fd5b505afa158015610f71573d6000803e3d6000fd5b505050506040513d6020811015610f8757600080fd5b8101908080519060200190929190505050600360009054906101000a900473ffffffffffffffffffffffffffffffffffffffff1673ffffffffffffffffffffffffffffffffffffffff1663a9860cc4876040518263ffffffff167c01000000000000000000000000000000000000000000000000000000000281526004018082815260200191505060206040518083038186803b15801561102757600080fd5b505afa15801561103b573d6000803e3d6000fd5b505050506040513d602081101561105157600080fd5b81019080805190602001909291905050506040518363ffffffff167c0100000000000000000000000000000000000000000000000000000000028152600401808381526020018281526020019250505060206040518083038186803b1580156110b957600080fd5b505afa1580156110cd573d6000803e3d6000fd5b505050506040513d60208110156110e357600080fd5b8101908080519060200190929190505050905061110b81600154611b7a90919063ffffffff16565b5061112160025482611b7a90919063ffffffff16565b506111f3600360009054906101000a900473ffffffffffffffffffffffffffffffffffffffff1673ffffffffffffffffffffffffffffffffffffffff16632c4e722e6040518163ffffffff167c010000000000000000000000000000000000000000000000000000000002815260040160206040518083038186803b1580156111a957600080fd5b505afa1580156111bd573d6000803e3d6000fd5b505050506040513d60208110156111d357600080fd5b810190808051906020019092919050505082611c0490919063ffffffff16565b600281905550600360009054906101000a900473ffffffffffffffffffffffffffffffffffffffff1673ffffffffffffffffffffffffffffffffffffffff1663518f6bec8461124d60025485611c4e90919063ffffffff16565b61125561179b565b6040518463ffffffff167c0100000000000000000000000000000000000000000000000000000000028152600401808481526020018381526020018273ffffffffffffffffffffffffffffffffffffffff1673ffffffffffffffffffffffffffffffffffffffff1681526020019350505050602060405180830381600087803b1580156112e157600080fd5b505af11580156112f5573d6000803e3d6000fd5b505050506040513d602081101561130b57600080fd5b8101908080519060200190929190505050506001915050919050565b60008060149054906101000a900460ff1615156113d2576040517f08c379a00000000000000000000000000000000000000000000000000000000081526004018080602001828103825260368152602001807f6f6e6c79436f6c6c6563746f723a2063616c6c657220646f6573206e6f74206881526020017f6176652074686520436f6c6c6563746f7220726f6c650000000000000000000081525060400191505060405180910390fd5b600360009054906101000a900473ffffffffffffffffffffffffffffffffffffffff1673ffffffffffffffffffffffffffffffffffffffff1663a6b1a2eb88888888888861141e61179b565b6040518863ffffffff167c010000000000000000000000000000000000000000000000000000000002815260040180806020018881526020018781526020018681526020018573ffffffffffffffffffffffffffffffffffffffff1673ffffffffffffffffffffffffffffffffffffffff1681526020018481526020018373ffffffffffffffffffffffffffffffffffffffff1673ffffffffffffffffffffffffffffffffffffffff168152602001828103825289818151815260200191508051906020019080838360005b838110156115055780820151818401526020810190506114ea565b50505050905090810190601f1680156115325780820380516001836020036101000a031916815260200191505b5098505050505050505050602060405180830381600087803b15801561155757600080fd5b505af115801561156b573d6000803e3d6000fd5b505050506040513d602081101561158157600080fd5b8101908080519060200190929190505050151561162c576040517f08c379a000000000000000000000000000000000000000000000000000000000815260040180806020018281038252602c8152602001807f63616c6c696e672061646444656c6976657261626c65732066756e6374696f6e81526020017f206861732069737375657320000000000000000000000000000000000000000081525060400191505060405180910390fd5b600190509695505050505050565b600360009054906101000a900473ffffffffffffffffffffffffffffffffffffffff1681565b6116686117c4565b15156116dc576040517f08c379a00000000000000000000000000000000000000000000000000000000081526004018080602001828103825260208152602001807f4f776e61626c653a2063616c6c6572206973206e6f7420746865206f776e657281525060200191505060405180910390fd5b600073ffffffffffffffffffffffffffffffffffffffff166000809054906101000a900473ffffffffffffffffffffffffffffffffffffffff1673ffffffffffffffffffffffffffffffffffffffff167f8be0079c531659141344cd1fd0a4f28419497f9722a3daafe3b4186f6b6457e060405160405180910390a360008060006101000a81548173ffffffffffffffffffffffffffffffffffffffff021916908373ffffffffffffffffffffffffffffffffffffffff160217905550565b60008060009054906101000a900473ffffffffffffffffffffffffffffffffffffffff16905090565b60008060009054906101000a900473ffffffffffffffffffffffffffffffffffffffff1673ffffffffffffffffffffffffffffffffffffffff16611806611c98565b73ffffffffffffffffffffffffffffffffffffffff1614905090565b600061182c6117c4565b15156118a0576040517f08c379a00000000000000000000000000000000000000000000000000000000081526004018080602001828103825260208152602001807f4f776e61626c653a2063616c6c6572206973206e6f7420746865206f776e657281525060200191505060405180910390fd5b43403373ffffffffffffffffffffffffffffffffffffffff167fcd15987b0f6378bc78743de8e09ad9dbff0e9e29c40bde7e7b0ee297b8823bf785856040518080602001838152602001828103825284818151815260200191508051906020019080838360005b83811015611922578082015181840152602081019050611907565b50505050905090810190601f16801561194f5780820380516001836020036101000a031916815260200191505b50935050505060405180910390a36001905092915050565b600060149054906101000a900460ff1681565b60025481565b60008060149054906101000a900460ff161515611a2b576040517f08c379a00000000000000000000000000000000000000000000000000000000081526004018080602001828103825260368152602001807f6f6e6c79436f6c6c6563746f723a2063616c6c657220646f6573206e6f74206881526020017f6176652074686520436f6c6c6563746f7220726f6c650000000000000000000081525060400191505060405180910390fd5b43403373ffffffffffffffffffffffffffffffffffffffff167f52024c344318d2183e9ba73517c3ae72f642c642d033bed8b89aecbbd5f06c6285856040518080602001838152602001828103825284818151815260200191508051906020019080838360005b83811015611aad578082015181840152602081019050611a92565b50505050905090810190601f168015611ada5780820380516001836020036101000a031916815260200191505b50935050505060405180910390a36001905092915050565b611afa6117c4565b1515611b6e576040517f08c379a00000000000000000000000000000000000000000000000000000000081526004018080602001828103825260208152602001807f4f776e61626c653a2063616c6c6572206973206e6f7420746865206f776e657281525060200191505060405180910390fd5b611b7781611ca0565b50565b6000808284019050838110151515611bfa576040517f08c379a000000000000000000000000000000000000000000000000000000000815260040180806020018281038252601b8152602001807f536166654d6174683a206164646974696f6e206f766572666c6f77000000000081525060200191505060405180910390fd5b8091505092915050565b6000611c4683836040805190810160405280601881526020017f536166654d6174683a206d6f64756c6f206279207a65726f0000000000000000815250611e29565b905092915050565b6000611c9083836040805190810160405280601e81526020017f536166654d6174683a207375627472616374696f6e206f766572666c6f770000815250611eee565b905092915050565b600033905090565b600073ffffffffffffffffffffffffffffffffffffffff168173ffffffffffffffffffffffffffffffffffffffff1614151515611d6b576040517f08c379a00000000000000000000000000000000000000000000000000000000081526004018080602001828103825260268152602001807f4f776e61626c653a206e6577206f776e657220697320746865207a65726f206181526020017f646472657373000000000000000000000000000000000000000000000000000081525060400191505060405180910390fd5b8073ffffffffffffffffffffffffffffffffffffffff166000809054906101000a900473ffffffffffffffffffffffffffffffffffffffff1673ffffffffffffffffffffffffffffffffffffffff167f8be0079c531659141344cd1fd0a4f28419497f9722a3daafe3b4186f6b6457e060405160405180910390a3806000806101000a81548173ffffffffffffffffffffffffffffffffffffffff021916908373ffffffffffffffffffffffffffffffffffffffff16021790555050565b60008083141582901515611ed8576040517f08c379a00000000000000000000000000000000000000000000000000000000081526004018080602001828103825283818151815260200191508051906020019080838360005b83811015611e9d578082015181840152602081019050611e82565b50505050905090810190601f168015611eca5780820380516001836020036101000a031916815260200191505b509250505060405180910390fd5b508284811515611ee457fe5b0690509392505050565b60008383111582901515611f9d576040517f08c379a00000000000000000000000000000000000000000000000000000000081526004018080602001828103825283818151815260200191508051906020019080838360005b83811015611f62578082015181840152602081019050611f47565b50505050905090810190601f168015611f8f5780820380516001836020036101000a031916815260200191505b509250505060405180910390fd5b506000838503905080915050939250505056fea165627a7a723058208b7dbdc180d3635098c46794212cbfef2a0f4e24f5671aa05c22e6d9c312085b0029",
  "source": "pragma solidity ^0.5.0;\nimport '../node_modules/@openzeppelin/contracts/ownership/Ownable.sol';\nimport '../node_modules/@openzeppelin/contracts/math/SafeMath.sol';\n\nimport './OrgRegistry.sol';\n\ncontract UserWallet is Ownable {\n    using SafeMath for uint256;\n\n    bool public isCollector;\n\n    uint256 public raisedPoints;\n    uint256 public currentPoints;\n    OrgRegistry public  orgRegistry;\n\n    event ResidentSendRequest( address indexed resident,bytes32 indexed _blockhash ,string  location,uint256 time);\n    event CollectorSubmitRequest( address indexed collector,bytes32 indexed _blockhash ,string  location,uint256 time);\n\n    constructor(address _owner, OrgRegistry _orgRegistry) public{\n        orgRegistry = _orgRegistry;\n        _transferOwnership(_owner);\n\n    }\n   modifier onlyCollector() {\n        require(isCollector, \"onlyCollector: caller does not have the Collector role\");\n        _;\n    }\n   modifier  onlyOrg() {\n    require(!orgRegistry.isOwner(),\"onlyOrg: caller does not have the YCOrg role\");\n        _;\n    }\n\n\n\nfunction approveCollector(bool status) public onlyOrg() returns (bool) {\n        isCollector = status;\n\n    return true;\n}\n    function residentSendRequest(string memory location,uint256 time)public onlyOwner() returns (bool) {\n        emit  ResidentSendRequest(msg.sender,blockhash(block.number),location,time);\n        return true;\n    }\n \n    function residentConfirm( uint256 bhash)public onlyOwner() returns (bool) {\n        // redeem token based on his points; call org contract to redeem \n            uint256 points = orgRegistry.calcResidentPoints(orgRegistry.getDeliveredCode(bhash),orgRegistry.getDeliveredAmount(bhash));\n            raisedPoints.add(points);\n            points.add(currentPoints);\n            currentPoints = points.mod(orgRegistry.rate());\n            orgRegistry.confirmPickup(bhash, points.sub(currentPoints),owner());\n            return true;\n    }\n   function collectorSubmitRequest(string memory location,uint256 time)public onlyCollector() returns (bool) {\n        emit  CollectorSubmitRequest(msg.sender ,blockhash(block.number), location, time);\n        return true;\n    }\n      function collectorAddDelivery(string memory location,uint256 time, uint256 code, uint256 amount,\n      address _resident,uint256 mapHash)public onlyCollector() returns (bool) {\n     require(orgRegistry.addDelivery( location, time,  code,  amount,\n        _resident, mapHash ,owner()),\"calling addDeliverables function has issues \");\n        return true;\n    }   \n     function OrgConfirm( uint256 bhash)public onlyOrg() returns (bool) {\n        // redeem token based on his points; call org contract to redeem \n            uint256 points = orgRegistry.calcCollectorPoints(orgRegistry.getDeliveredCode(bhash),orgRegistry.getDeliveredAmount(bhash));\n            raisedPoints.add(points);\n            points.add(currentPoints);\n            currentPoints = points.mod(orgRegistry.rate());\n            orgRegistry.validateDeliverables(bhash, points.sub(currentPoints),owner());\n            return true;\n    }\n}",
  "sourcePath": "/mnt/6b0867de-74e1-417d-8281-ce67ccf712c6/LocalD/work/yallah-clean/yc-smart-contract/contracts/UserWallet.sol",
  "compiler": {
    "name": "solc",
    "version": "0.5.0+commit.1d4f565a.Emscripten.clang"
  },
  "schemaVersion": "3.0.21",
  "updatedAt": "2020-03-14T16:25:06.277Z",
  "devdoc": {
    "methods": {
      "isOwner()": {
        "details": "Returns true if the caller is the current owner."
      },
      "owner()": {
        "details": "Returns the address of the current owner."
      },
      "renounceOwnership()": {
        "details": "Leaves the contract without owner. It will not be possible to call `onlyOwner` functions anymore. Can only be called by the current owner.     * NOTE: Renouncing ownership will leave the contract without an owner, thereby removing any functionality that is only available to the owner."
      },
      "transferOwnership(address)": {
        "details": "Transfers ownership of the contract to a new account (`newOwner`). Can only be called by the current owner."
      }
    }
  },
  "userdoc": {
    "methods": {}
  }
}