{
  "contractName": "YCAdminRole",
  "abi": [
    {
      "inputs": [],
      "payable": false,
      "stateMutability": "nonpayable",
      "type": "constructor"
    },
    {
      "anonymous": false,
      "inputs": [
        {
          "indexed": true,
          "name": "account",
          "type": "address"
        }
      ],
      "name": "YCAdminAdded",
      "type": "event"
    },
    {
      "anonymous": false,
      "inputs": [
        {
          "indexed": true,
          "name": "account",
          "type": "address"
        }
      ],
      "name": "YCAdminRemoved",
      "type": "event"
    },
    {
      "constant": true,
      "inputs": [
        {
          "name": "account",
          "type": "address"
        }
      ],
      "name": "isYCAdmin",
      "outputs": [
        {
          "name": "",
          "type": "bool"
        }
      ],
      "payable": false,
      "stateMutability": "view",
      "type": "function"
    },
    {
      "constant": false,
      "inputs": [
        {
          "name": "account",
          "type": "address"
        }
      ],
      "name": "addYCAdmin",
      "outputs": [],
      "payable": false,
      "stateMutability": "nonpayable",
      "type": "function"
    },
    {
      "constant": false,
      "inputs": [],
      "name": "renounceYCAdmin",
      "outputs": [],
      "payable": false,
      "stateMutability": "nonpayable",
      "type": "function"
    }
  ],
  "bytecode": "0x608060405234801561001057600080fd5b506100293361002e640100000000026401000000009004565b6102a4565b61004f816000610095640100000000026104dd179091906401000000009004565b8073ffffffffffffffffffffffffffffffffffffffff167fe6247dc7338f27550b438c6a820e8bd3b2cc07da8b566ab74d47ed7926b0ab8560405160405180910390a250565b6100ae8282610181640100000000026401000000009004565b151515610123576040517f08c379a000000000000000000000000000000000000000000000000000000000815260040180806020018281038252601f8152602001807f526f6c65733a206163636f756e7420616c72656164792068617320726f6c650081525060200191505060405180910390fd5b60018260000160008373ffffffffffffffffffffffffffffffffffffffff1673ffffffffffffffffffffffffffffffffffffffff16815260200190815260200160002060006101000a81548160ff0219169083151502179055505050565b60008073ffffffffffffffffffffffffffffffffffffffff168273ffffffffffffffffffffffffffffffffffffffff161415151561024d576040517f08c379a00000000000000000000000000000000000000000000000000000000081526004018080602001828103825260228152602001807f526f6c65733a206163636f756e7420697320746865207a65726f20616464726581526020017f737300000000000000000000000000000000000000000000000000000000000081525060400191505060405180910390fd5b8260000160008373ffffffffffffffffffffffffffffffffffffffff1673ffffffffffffffffffffffffffffffffffffffff16815260200190815260200160002060009054906101000a900460ff16905092915050565b6105e6806102b36000396000f3fe608060405260043610610057576000357c0100000000000000000000000000000000000000000000000000000000900463ffffffff1680631067d72b1461005c5780638b9acdc014610073578063bd7cdaa1146100c4575b600080fd5b34801561006857600080fd5b5061007161012d565b005b34801561007f57600080fd5b506100c26004803603602081101561009657600080fd5b81019080803573ffffffffffffffffffffffffffffffffffffffff169060200190929190505050610138565b005b3480156100d057600080fd5b50610113600480360360208110156100e757600080fd5b81019080803573ffffffffffffffffffffffffffffffffffffffff1690602001909291905050506101e7565b604051808215151515815260200191505060405180910390f35b61013633610204565b565b610141336101e7565b15156101db576040517f08c379a00000000000000000000000000000000000000000000000000000000081526004018080602001828103825260328152602001807f594341646d696e526f6c653a2063616c6c657220646f6573206e6f742068617681526020017f652074686520594341646d696e20726f6c65000000000000000000000000000081525060400191505060405180910390fd5b6101e48161025e565b50565b60006101fd8260006102b890919063ffffffff16565b9050919050565b6102188160006103db90919063ffffffff16565b8073ffffffffffffffffffffffffffffffffffffffff167f846b5a39f613a3fe02f35f81e396371a588a10f334cadd89425b1d1b394d527660405160405180910390a250565b6102728160006104dd90919063ffffffff16565b8073ffffffffffffffffffffffffffffffffffffffff167fe6247dc7338f27550b438c6a820e8bd3b2cc07da8b566ab74d47ed7926b0ab8560405160405180910390a250565b60008073ffffffffffffffffffffffffffffffffffffffff168273ffffffffffffffffffffffffffffffffffffffff1614151515610384576040517f08c379a00000000000000000000000000000000000000000000000000000000081526004018080602001828103825260228152602001807f526f6c65733a206163636f756e7420697320746865207a65726f20616464726581526020017f737300000000000000000000000000000000000000000000000000000000000081525060400191505060405180910390fd5b8260000160008373ffffffffffffffffffffffffffffffffffffffff1673ffffffffffffffffffffffffffffffffffffffff16815260200190815260200160002060009054906101000a900460ff16905092915050565b6103e582826102b8565b151561047f576040517f08c379a00000000000000000000000000000000000000000000000000000000081526004018080602001828103825260218152602001807f526f6c65733a206163636f756e7420646f6573206e6f74206861766520726f6c81526020017f650000000000000000000000000000000000000000000000000000000000000081525060400191505060405180910390fd5b60008260000160008373ffffffffffffffffffffffffffffffffffffffff1673ffffffffffffffffffffffffffffffffffffffff16815260200190815260200160002060006101000a81548160ff0219169083151502179055505050565b6104e782826102b8565b15151561055c576040517f08c379a000000000000000000000000000000000000000000000000000000000815260040180806020018281038252601f8152602001807f526f6c65733a206163636f756e7420616c72656164792068617320726f6c650081525060200191505060405180910390fd5b60018260000160008373ffffffffffffffffffffffffffffffffffffffff1673ffffffffffffffffffffffffffffffffffffffff16815260200190815260200160002060006101000a81548160ff021916908315150217905550505056fea165627a7a72305820f9e732be46ca973c20ba8bdf497b8b8a3cac21b0b90827ef225f12afc1fe36470029",
  "source": "pragma solidity ^0.5.0;\n\nimport \"node_modules/@openzeppelin/contracts/access/Roles.sol\";\n\ncontract YCAdminRole  {\n    using Roles for Roles.Role;\n\n    event YCAdminAdded(address indexed account);\n    event YCAdminRemoved(address indexed account);\n\n    Roles.Role private _YCAdmins;\n\n    constructor () public {\n        _addYCAdmin(msg.sender);\n    }\n\n    modifier onlyYCAdmin() {\n        require(isYCAdmin(msg.sender), \"YCAdminRole: caller does not have the YCAdmin role\");\n        _;\n    }\n\n    function isYCAdmin(address account) public view returns (bool) {\n        return _YCAdmins.has(account);\n    }\n\n    function addYCAdmin(address account) public onlyYCAdmin {\n        _addYCAdmin(account);\n    }\n\n    function renounceYCAdmin() public {\n        _removeYCAdmin(msg.sender);\n    }\n\n    function _addYCAdmin(address account) internal {\n        _YCAdmins.add(account);\n        emit YCAdminAdded(account);\n    }\n\n    function _removeYCAdmin(address account) internal {\n        _YCAdmins.remove(account);\n        emit YCAdminRemoved(account);\n    }\n}\n",
  "sourcePath": "/mnt/6b0867de-74e1-417d-8281-ce67ccf712c6/LocalD/work/yallah-clean/yc-smart-contract/contracts/YCAdminRole.sol",
  "compiler": {
    "name": "solc",
    "version": "0.5.0+commit.1d4f565a.Emscripten.clang"
  },
  "schemaVersion": "3.0.23",
  "updatedAt": "2020-03-19T03:34:46.263Z",
  "networkType": "quorum",
  "devdoc": {
    "methods": {}
  },
  "userdoc": {
    "methods": {}
  }
}